{
    "contractName": "Market",
    "abi": [
        {
            "inputs": [],
            "stateMutability": "nonpayable",
            "type": "constructor"
        },
        {
            "anonymous": false,
            "inputs": [
                {
                    "indexed": true,
                    "internalType": "address",
                    "name": "admin",
                    "type": "address"
                }
            ],
            "name": "AdminRemoved",
            "type": "event"
        },
        {
            "anonymous": false,
            "inputs": [
                {
                    "indexed": true,
                    "internalType": "address",
                    "name": "admin",
                    "type": "address"
                }
            ],
            "name": "NewAdmin",
            "type": "event"
        },
        {
            "anonymous": false,
            "inputs": [
                {
                    "indexed": true,
                    "internalType": "address",
                    "name": "previousOwner",
                    "type": "address"
                },
                {
                    "indexed": true,
                    "internalType": "address",
                    "name": "newOwner",
                    "type": "address"
                }
            ],
            "name": "OwnershipTransferred",
            "type": "event"
        },
        {
            "inputs": [
                {
                    "internalType": "address",
                    "name": "_tokenERC20",
                    "type": "address"
                }
            ],
            "name": "ChangePrincipalToken",
            "outputs": [
                {
                    "internalType": "bool",
                    "name": "",
                    "type": "bool"
                }
            ],
            "stateMutability": "nonpayable",
            "type": "function"
        },
        {
            "inputs": [
                {
                    "internalType": "address",
                    "name": "_tokenERC20",
                    "type": "address"
                }
            ],
            "name": "ChangeTokenOTRO",
            "outputs": [
                {
                    "internalType": "bool",
                    "name": "",
                    "type": "bool"
                }
            ],
            "stateMutability": "nonpayable",
            "type": "function"
        },
        {
            "inputs": [],
            "name": "MAX_CSC",
            "outputs": [
                {
                    "internalType": "uint256",
                    "name": "",
                    "type": "uint256"
                }
            ],
            "stateMutability": "view",
            "type": "function"
        },
        {
            "inputs": [],
            "name": "MIN_CSC",
            "outputs": [
                {
                    "internalType": "uint256",
                    "name": "",
                    "type": "uint256"
                }
            ],
            "stateMutability": "view",
            "type": "function"
        },
        {
            "inputs": [],
            "name": "TIME_CLAIM",
            "outputs": [
                {
                    "internalType": "uint256",
                    "name": "",
                    "type": "uint256"
                }
            ],
            "stateMutability": "view",
            "type": "function"
        },
        {
            "inputs": [
                {
                    "internalType": "string",
                    "name": "_nombre",
                    "type": "string"
                },
                {
                    "internalType": "string",
                    "name": "_tipo",
                    "type": "string"
                },
                {
                    "internalType": "uint256",
                    "name": "_value",
                    "type": "uint256"
                },
                {
                    "internalType": "bool",
                    "name": "_acumulable",
                    "type": "bool"
                },
                {
                    "internalType": "bool",
                    "name": "_ilimitado",
                    "type": "bool"
                },
                {
                    "internalType": "uint256",
                    "name": "_cantidad",
                    "type": "uint256"
                }
            ],
            "name": "addItem",
            "outputs": [
                {
                    "internalType": "bool",
                    "name": "",
                    "type": "bool"
                }
            ],
            "stateMutability": "nonpayable",
            "type": "function"
        },
        {
            "inputs": [
                {
                    "internalType": "string",
                    "name": "_tipo",
                    "type": "string"
                },
                {
                    "internalType": "bool",
                    "name": "_ilimitado",
                    "type": "bool"
                },
                {
                    "internalType": "uint256",
                    "name": "_cantidad",
                    "type": "uint256"
                }
            ],
            "name": "addOption",
            "outputs": [
                {
                    "internalType": "bool",
                    "name": "",
                    "type": "bool"
                }
            ],
            "stateMutability": "nonpayable",
            "type": "function"
        },
        {
            "inputs": [
                {
                    "internalType": "address",
                    "name": "",
                    "type": "address"
                }
            ],
            "name": "admin",
            "outputs": [
                {
                    "internalType": "bool",
                    "name": "",
                    "type": "bool"
                }
            ],
            "stateMutability": "view",
            "type": "function"
        },
        {
            "inputs": [],
            "name": "adminWallet",
            "outputs": [
                {
                    "internalType": "address",
                    "name": "",
                    "type": "address"
                }
            ],
            "stateMutability": "view",
            "type": "function"
        },
        {
            "inputs": [
                {
                    "internalType": "uint256",
                    "name": "_value",
                    "type": "uint256"
                },
                {
                    "internalType": "address",
                    "name": "_user",
                    "type": "address"
                }
            ],
            "name": "asignarCoinsTo",
            "outputs": [
                {
                    "internalType": "bool",
                    "name": "",
                    "type": "bool"
                }
            ],
            "stateMutability": "nonpayable",
            "type": "function"
        },
        {
            "inputs": [
                {
                    "internalType": "uint256",
                    "name": "_value",
                    "type": "uint256"
                }
            ],
            "name": "buyCoins",
            "outputs": [
                {
                    "internalType": "bool",
                    "name": "",
                    "type": "bool"
                }
            ],
            "stateMutability": "nonpayable",
            "type": "function"
        },
        {
            "inputs": [
                {
                    "internalType": "uint256",
                    "name": "_id",
                    "type": "uint256"
                }
            ],
            "name": "buyItem",
            "outputs": [
                {
                    "internalType": "bool",
                    "name": "",
                    "type": "bool"
                }
            ],
            "stateMutability": "nonpayable",
            "type": "function"
        },
        {
            "inputs": [
                {
                    "internalType": "uint256",
                    "name": "_id",
                    "type": "uint256"
                },
                {
                    "internalType": "string",
                    "name": "_nombre",
                    "type": "string"
                },
                {
                    "internalType": "string",
                    "name": "_tipo",
                    "type": "string"
                },
                {
                    "internalType": "uint256",
                    "name": "_value",
                    "type": "uint256"
                },
                {
                    "internalType": "bool",
                    "name": "_acumulable",
                    "type": "bool"
                },
                {
                    "internalType": "bool",
                    "name": "_ilimitado",
                    "type": "bool"
                },
                {
                    "internalType": "uint256",
                    "name": "_cantidad",
                    "type": "uint256"
                }
            ],
            "name": "editItem",
            "outputs": [
                {
                    "internalType": "bool",
                    "name": "",
                    "type": "bool"
                }
            ],
            "stateMutability": "nonpayable",
            "type": "function"
        },
        {
            "inputs": [
                {
                    "internalType": "uint256",
                    "name": "_id",
                    "type": "uint256"
                },
                {
                    "internalType": "string",
                    "name": "_tipo",
                    "type": "string"
                },
                {
                    "internalType": "bool",
                    "name": "_ilimitado",
                    "type": "bool"
                },
                {
                    "internalType": "uint256",
                    "name": "_cantidad",
                    "type": "uint256"
                }
            ],
            "name": "editOption",
            "outputs": [
                {
                    "internalType": "bool",
                    "name": "",
                    "type": "bool"
                }
            ],
            "stateMutability": "nonpayable",
            "type": "function"
        },
        {
            "inputs": [
                {
                    "internalType": "uint256",
                    "name": "_value",
                    "type": "uint256"
                },
                {
                    "internalType": "address",
                    "name": "_user",
                    "type": "address"
                }
            ],
            "name": "gastarCoinsfrom",
            "outputs": [
                {
                    "internalType": "bool",
                    "name": "",
                    "type": "bool"
                }
            ],
            "stateMutability": "nonpayable",
            "type": "function"
        },
        {
            "inputs": [
                {
                    "internalType": "uint256",
                    "name": "",
                    "type": "uint256"
                }
            ],
            "name": "idNfts",
            "outputs": [
                {
                    "internalType": "address",
                    "name": "",
                    "type": "address"
                }
            ],
            "stateMutability": "view",
            "type": "function"
        },
        {
            "inputs": [
                {
                    "internalType": "address",
                    "name": "",
                    "type": "address"
                },
                {
                    "internalType": "uint256",
                    "name": "",
                    "type": "uint256"
                }
            ],
            "name": "inventario",
            "outputs": [
                {
                    "internalType": "string",
                    "name": "nombre",
                    "type": "string"
                },
                {
                    "internalType": "string",
                    "name": "tipo",
                    "type": "string"
                },
                {
                    "internalType": "uint256",
                    "name": "valor",
                    "type": "uint256"
                },
                {
                    "internalType": "bool",
                    "name": "acumulable",
                    "type": "bool"
                },
                {
                    "internalType": "bool",
                    "name": "ilimitado",
                    "type": "bool"
                },
                {
                    "internalType": "uint256",
                    "name": "cantidad",
                    "type": "uint256"
                }
            ],
            "stateMutability": "view",
            "type": "function"
        },
        {
            "inputs": [
                {
                    "internalType": "address",
                    "name": "",
                    "type": "address"
                }
            ],
            "name": "investors",
            "outputs": [
                {
                    "internalType": "bool",
                    "name": "baneado",
                    "type": "bool"
                },
                {
                    "internalType": "uint256",
                    "name": "balance",
                    "type": "uint256"
                },
                {
                    "internalType": "uint256",
                    "name": "payAt",
                    "type": "uint256"
                },
                {
                    "internalType": "uint256",
                    "name": "almacen",
                    "type": "uint256"
                }
            ],
            "stateMutability": "view",
            "type": "function"
        },
        {
            "inputs": [
                {
                    "internalType": "uint256",
                    "name": "",
                    "type": "uint256"
                }
            ],
            "name": "items",
            "outputs": [
                {
                    "internalType": "string",
                    "name": "nombre",
                    "type": "string"
                },
                {
                    "internalType": "string",
                    "name": "tipo",
                    "type": "string"
                },
                {
                    "internalType": "uint256",
                    "name": "valor",
                    "type": "uint256"
                },
                {
                    "internalType": "bool",
                    "name": "acumulable",
                    "type": "bool"
                },
                {
                    "internalType": "bool",
                    "name": "ilimitado",
                    "type": "bool"
                },
                {
                    "internalType": "uint256",
                    "name": "cantidad",
                    "type": "uint256"
                }
            ],
            "stateMutability": "view",
            "type": "function"
        },
        {
            "inputs": [
                {
                    "internalType": "address",
                    "name": "_user",
                    "type": "address"
                }
            ],
            "name": "largoInventario",
            "outputs": [
                {
                    "internalType": "uint256",
                    "name": "",
                    "type": "uint256"
                }
            ],
            "stateMutability": "view",
            "type": "function"
        },
        {
            "inputs": [],
            "name": "largoItems",
            "outputs": [
                {
                    "internalType": "uint256",
                    "name": "",
                    "type": "uint256"
                }
            ],
            "stateMutability": "view",
            "type": "function"
        },
        {
            "inputs": [],
            "name": "largoOptions",
            "outputs": [
                {
                    "internalType": "uint256",
                    "name": "",
                    "type": "uint256"
                }
            ],
            "stateMutability": "view",
            "type": "function"
        },
        {
            "inputs": [
                {
                    "internalType": "address payable",
                    "name": "_newadmin",
                    "type": "address"
                }
            ],
            "name": "makeNewAdmin",
            "outputs": [],
            "stateMutability": "nonpayable",
            "type": "function"
        },
        {
            "inputs": [
                {
                    "internalType": "address payable",
                    "name": "_oldadmin",
                    "type": "address"
                }
            ],
            "name": "makeRemoveAdmin",
            "outputs": [],
            "stateMutability": "nonpayable",
            "type": "function"
        },
        {
            "inputs": [
                {
                    "internalType": "uint256",
                    "name": "",
                    "type": "uint256"
                }
            ],
            "name": "nfts",
            "outputs": [
                {
                    "internalType": "address",
                    "name": "",
                    "type": "address"
                }
            ],
            "stateMutability": "view",
            "type": "function"
        },
        {
            "inputs": [
                {
                    "internalType": "uint256",
                    "name": "",
                    "type": "uint256"
                }
            ],
            "name": "opciones",
            "outputs": [
                {
                    "internalType": "string",
                    "name": "tipo",
                    "type": "string"
                },
                {
                    "internalType": "bool",
                    "name": "ilimitados",
                    "type": "bool"
                },
                {
                    "internalType": "uint256",
                    "name": "cantidad",
                    "type": "uint256"
                }
            ],
            "stateMutability": "view",
            "type": "function"
        },
        {
            "inputs": [],
            "name": "owner",
            "outputs": [
                {
                    "internalType": "address payable",
                    "name": "",
                    "type": "address"
                }
            ],
            "stateMutability": "view",
            "type": "function"
        },
        {
            "inputs": [],
            "name": "redimETH",
            "outputs": [
                {
                    "internalType": "uint256",
                    "name": "",
                    "type": "uint256"
                }
            ],
            "stateMutability": "nonpayable",
            "type": "function"
        },
        {
            "inputs": [],
            "name": "redimOTRO",
            "outputs": [
                {
                    "internalType": "uint256",
                    "name": "",
                    "type": "uint256"
                }
            ],
            "stateMutability": "nonpayable",
            "type": "function"
        },
        {
            "inputs": [],
            "name": "redimTokenPrincipal01",
            "outputs": [
                {
                    "internalType": "uint256",
                    "name": "",
                    "type": "uint256"
                }
            ],
            "stateMutability": "nonpayable",
            "type": "function"
        },
        {
            "inputs": [
                {
                    "internalType": "uint256",
                    "name": "_value",
                    "type": "uint256"
                }
            ],
            "name": "redimTokenPrincipal02",
            "outputs": [
                {
                    "internalType": "uint256",
                    "name": "",
                    "type": "uint256"
                }
            ],
            "stateMutability": "nonpayable",
            "type": "function"
        },
        {
            "inputs": [
                {
                    "internalType": "uint256",
                    "name": "_value",
                    "type": "uint256"
                }
            ],
            "name": "sellCoins",
            "outputs": [
                {
                    "internalType": "bool",
                    "name": "",
                    "type": "bool"
                }
            ],
            "stateMutability": "nonpayable",
            "type": "function"
        },
        {
            "inputs": [
                {
                    "internalType": "uint256",
                    "name": "",
                    "type": "uint256"
                }
            ],
            "name": "tipoNFT",
            "outputs": [
                {
                    "internalType": "uint256",
                    "name": "",
                    "type": "uint256"
                }
            ],
            "stateMutability": "view",
            "type": "function"
        },
        {
            "inputs": [],
            "name": "token",
            "outputs": [
                {
                    "internalType": "address",
                    "name": "",
                    "type": "address"
                }
            ],
            "stateMutability": "view",
            "type": "function"
        },
        {
            "inputs": [],
            "name": "tokenTRC721",
            "outputs": [
                {
                    "internalType": "address",
                    "name": "",
                    "type": "address"
                }
            ],
            "stateMutability": "view",
            "type": "function"
        },
        {
            "inputs": [
                {
                    "internalType": "address payable",
                    "name": "newOwner",
                    "type": "address"
                }
            ],
            "name": "transferOwnership",
            "outputs": [],
            "stateMutability": "nonpayable",
            "type": "function"
        },
        {
            "inputs": [],
            "name": "ventaPublica",
            "outputs": [
                {
                    "internalType": "uint256",
                    "name": "",
                    "type": "uint256"
                }
            ],
            "stateMutability": "view",
            "type": "function"
        }
    ],
    "bytecode": "6080604052600280546001600160a01b031990811673f0fb4a5acf1b1126a991ee189408b112028d7a6390811790925560038054821683179055600480548216724769ef6aec57efbf56c24d0a04fe619fbb614317905563617972f7600555681b1ae4d6e2ef50000060065569021e19e0c9bab240000060075562093a8060085560098054821683179055600a8054821683179055600b80549091169091179055348015620000ad57600080fd5b50600080546001600160a01b0319163390811782558152600160208181526040808420805460ff191684179055805161010081018252601460c082019081527f74312d6272617a696c2d6c6567656e646172696f00000000000000000000000060e0830152815281518083018352600a8152696c6567656e646172696f60b01b81850152818401526843c33c1937564800009181019190915260608101849052608081018490526103e860a0820152601180549384018155909352825180516005909302600080516020620036cf833981519152019262000192928492019062000d1e565b506020828101518051620001ad926001850192019062000d1e565b50604082810151600283015560608084015160038401805460808088015161ffff1990921693151561ff0019169390931761010091151582021790915560a09586015160049095019490945582519384018352601760c085019081527f74322d617267656e74696e612d6c6567656e646172696f00000000000000000060e0860152845282518084018452600a8152696c6567656e646172696f60b01b602082810191909152808601919091526843c33c19375648000093850193909352600091840182905283018190526103e893830193909352601180546001810182559352815180519293600080516020620036cf83398151915260059091020192620002ba928492019062000d1e565b506020828101518051620002d5926001850192019062000d1e565b50604082810151600283015560608084015160038401805460808088015161ffff1990921693151561ff0019169390931761010091151582021790915560a09586015160049095019490945582519384018352601660c085019081527f74332d616c656d616e69612d6c6567656e646172696f0000000000000000000060e0860152845282518084018452600a8152696c6567656e646172696f60b01b602082810191909152808601919091526843c33c19375648000093850193909352600091840182905283018190526103e893830193909352601180546001810182559352815180519293600080516020620036cf83398151915260059091020192620003e2928492019062000d1e565b506020828101518051620003fd926001850192019062000d1e565b50604082810151600283015560608084015160038401805460808088015161ffff1990921693151561ff0019169390931761010091151582021790915560a09586015160049095019490945582519384018352600e60c085019081526d74342d6a61706f6e2d657069636f60901b60e0860152845282518084018452600580825264657069636f60d81b60208381019190915280870192909252682f6f10780d22cc00009486019490945260009285018390529084018290526101f494840194909452601180546001810182559152825180519394600080516020620036cf833981519152929093029190910192620004fa928492019062000d1e565b50602082810151805162000515926001850192019062000d1e565b50604082810151600283015560608084015160038401805460808088015161ffff1990921693151561ff0019169390931761010091151582021790915560a09586015160049095019490945582519384018352601160c085018181527074352d636f6c6f6d6269612d657069636f60781b60e0870152855283518085018552600580825264657069636f60d81b60208381019190915280880192909252682f6f10780d22cc00009587019590955260009386018490529185018390526101f495850195909552845460018101865594909152825180519394600080516020620036cf8339815191529302929092019262000613928492019062000d1e565b5060208281015180516200062e926001850192019062000d1e565b50604082810151600283015560608084015160038401805460808088015161ffff1990921693151561ff0019169390931761010091151582021790915560a09586015160049095019490945582519384018352600f60c085019081526e74362d6d657869636f2d657069636f60881b60e0860152845282518084018452600580825264657069636f60d81b60208381019190915280870192909252682f6f10780d22cc00009486019490945260009285018390529084018290526105dc94840194909452601180546001810182559152825180519394600080516020620036cf8339815191529290930291909101926200072c928492019062000d1e565b50602082810151805162000747926001850192019062000d1e565b50604082810151600283015560608084015160038401805460808088015161ffff1990921693151561ff0019169390931761010091151582021790915560a09586015160049095019490945582519384018352601060c085019081526f74372d63726f616369612d657069636f60801b60e0860152845282518084018452600580825264657069636f60d81b60208381019190915280870192909252682f6f10780d22cc00009486019490945260009285018390529084018290526102ee94840194909452601180546001810182559152825180519394600080516020620036cf83398151915292909302919091019262000846928492019062000d1e565b50602082810151805162000861926001850192019062000d1e565b50604082810151600283015560608084015160038401805460808088015161ffff1990921693151561ff0019169390931761010091151582021790915560a09586015160049095019490945582519384018352600b60c085019081526a74382d45552d657069636f60a81b60e0860152845282518084018452600580825264657069636f60d81b60208381019190915280870192909252682f6f10780d22cc00009486019490945260009285018390529084018290526101f494840194909452601180546001810182559152825180519394600080516020620036cf8339815191529290930291909101926200095b928492019062000d1e565b50602082810151805162000976926001850192019062000d1e565b50604082810151600283015560608084015160038401805460808088015161ffff1990921693151561ff0019169390931761010091151582021790915560a09586015160049095019490945582519384018352601160c085018181527074392d706f72747567616c2d657069636f60781b60e0870152855283518085018552600580825264657069636f60d81b60208381019190915280880192909252682f6f10780d22cc00009587019590955260009386018490529185018390526102ee95850195909552845460018101865594909152825180519394600080516020620036cf8339815191529302929092019262000a74928492019062000d1e565b50602082810151805162000a8f926001850192019062000d1e565b50604082810151600283015560608084015160038401805460808088015161ffff1990921693151561ff0019169390931761010091151582021790915560a09586015160049095019490945582519384018352600d60c085019081526c7431302d6573702d657069636f60981b60e0860152845282518084018452600580825264657069636f60d81b60208381019190915280870192909252682f6f10780d22cc00009486019490945260009285018390529084018290526101f494840194909452601180546001810182559152825180519394600080516020620036cf83398151915292909302919091019262000b8b928492019062000d1e565b50602082810151805162000ba6926001850192019062000d1e565b5060408281015160028301556060808401516003808501805460808089015161ffff1990921694151561ff001916949094176101009115159190910217905560a09586015160049095019490945582519485018352600a918501918252696c6567656e646172696f60b01b90850152835260006020808501829052600192850183905260128054938401815590915283518051600080516020620036af83398151915293909402929092019262000c61928492019062000d1e565b506020828101516001808401805492151560ff1990931692909217909155604093840151600290930192909255825160a08101845260056060820190815264657069636f60d81b608083015281526000818301819052938101839052601280549384018155909352825180516003909302600080516020620036af833981519152019262000cf3928492019062000d1e565b50602082015160018201805460ff191691151591909117905560409091015160029091015562000e01565b82805462000d2c9062000dc4565b90600052602060002090601f01602090048101928262000d50576000855562000d9b565b82601f1062000d6b57805160ff191683800117855562000d9b565b8280016001018555821562000d9b579182015b8281111562000d9b57825182559160200191906001019062000d7e565b5062000da992915062000dad565b5090565b5b8082111562000da9576000815560010162000dae565b600181811c9082168062000dd957607f821691505b6020821081141562000dfb57634e487b7160e01b600052602260045260246000fd5b50919050565b61289e8062000e116000396000f3fe608060405234801561001057600080fd5b50600436106102265760003560e01c80638792fa4711610130578063c991c474116100b8578063e7fb74c71161007c578063e7fb74c714610526578063eb5b455a14610539578063f2fde38b14610541578063fc0c546a14610554578063fe4681961461056757600080fd5b8063c991c474146104e6578063cc360058146104f9578063d47edbaa1461050c578063d60fd9b914610515578063dd62e6b31461051e57600080fd5b806396ba5363116100ff57806396ba536314610452578063a750a02614610465578063ab97fd601461048e578063b516ca7c146104b3578063bfb231d2146104d357600080fd5b80638792fa47146104255780638929cbc51461042e5780638da5cb5b1461043657806391eb34e01461044957600080fd5b806336ec5fe4116101b357806363a846f81161018257806363a846f81461036c57806369ed1e0a1461038f5780636d3ea6ce146103a45780636f7bc9be146103b757806370a0966b1461041257600080fd5b806336ec5fe41461032057806351a4cd731461033357806351e954f714610346578063571c94d71461035957600080fd5b806317262d8a116101fa57806317262d8a1461029a578063238393e4146102bc578063265aa621146102c45780632e9928d31461030557806336b19cd71461030d57600080fd5b8062cffbcd1461022b578063035092d91461025357806309650b8e146102665780631140e85b14610279575b600080fd5b61023e610239366004612395565b61057a565b60405190151581526020015b60405180910390f35b61023e6102613660046124be565b610634565b61023e6102743660046124ee565b6106a8565b61028c61028736600461248c565b610753565b60405190815260200161024a565b6102ad6102a836600461248c565b610889565b60405161024a939291906126db565b60115461028c565b6102ed6102d236600461248c565b600e602052600090815260409020546001600160a01b031681565b6040516001600160a01b03909116815260200161024a565b61028c61094f565b6004546102ed906001600160a01b031681565b61023e61032e3660046123ef565b6109be565b61023e61034136600461248c565b610ac8565b61023e61035436600461254f565b610c53565b61023e6103673660046124be565b610d4f565b61023e61037a366004612328565b60016020526000908152604090205460ff1681565b6103a261039d366004612328565b610db4565b005b6002546102ed906001600160a01b031681565b6103f06103c5366004612328565b600c60205260009081526040902080546001820154600283015460039093015460ff90921692909184565b604080519415158552602085019390935291830152606082015260800161024a565b6103a2610420366004612328565b610e42565b61028c60055481565b61028c610eca565b6000546102ed906001600160a01b031681565b61028c60065481565b61023e610460366004612328565b61107e565b6102ed61047336600461248c565b600f602052600090815260409020546001600160a01b031681565b6104a161049c36600461234c565b6110c4565b60405161024a96959493929190612700565b61028c6104c136600461248c565b60106020526000908152604090205481565b6104a16104e136600461248c565b611237565b61028c6104f4366004612328565b61126a565b61023e610507366004612328565b611439565b61028c60075481565b61028c60085481565b60125461028c565b61023e61053436600461248c565b61148d565b61028c6118e5565b6103a261054f366004612328565b611a45565b6003546102ed906001600160a01b031681565b61023e61057536600461248c565b611ad3565b600080546001600160a01b0316336001600160a01b03161461059b57600080fd5b604080516060810182528581528415156020808301919091529181018490526012805460018101825560009190915281518051929360039092027fbb8a6a4669ba250d26cd7a459eca9d215f8307e33aebe50379bc5a3617ec344401926106059284920190612202565b5060208201516001828101805460ff191692151592909217909155604090920151600290910155949350505050565b3360009081526001602052604081205460ff1661065057600080fd5b6001600160a01b0382166000908152600c60205260409020805460ff168061067b5750806001015484115b1561068557600080fd5b838160010160008282546106999190612763565b90915550600195945050505050565b600080546001600160a01b0316336001600160a01b0316146106c957600080fd5b6040518060600160405280858152602001841515815260200183815250601286815481106106f9576106f9612816565b90600052602060002090600302016000820151816000019080519060200190610723929190612202565b5060208201516001828101805460ff19169215159290921790915560409092015160029091015595945050505050565b600080546001600160a01b0316336001600160a01b03161461077457600080fd5b600a546040516370a0823160e01b815230600482015283916001600160a01b0316906370a082319060240160206040518083038186803b1580156107b757600080fd5b505afa1580156107cb573d6000803e3d6000fd5b505050506040513d601f19601f820116820180604052508101906107ef91906124a5565b10156107fa57600080fd5b600a5460005460405163a9059cbb60e01b81526001600160a01b0391821660048201526024810185905291169063a9059cbb90604401602060405180830381600087803b15801561084a57600080fd5b505af115801561085e573d6000803e3d6000fd5b505050506040513d601f19601f820116820180604052508101906108829190612378565b5090919050565b6012818154811061089957600080fd5b90600052602060002090600302016000915090508060000180546108bc906127aa565b80601f01602080910402602001604051908101604052809291908181526020018280546108e8906127aa565b80156109355780601f1061090a57610100808354040283529160200191610935565b820191906000526020600020905b81548152906001019060200180831161091857829003601f168201915b505050506001830154600290930154919260ff1691905083565b600080546001600160a01b0316336001600160a01b03161461097057600080fd5b6000471161097d57600080fd5b600080546040516001600160a01b03909116914780156108fc02929091818181858888f193505050501580156109b7573d6000803e3d6000fd5b5047905090565b600080546001600160a01b0316336001600160a01b0316146109df57600080fd5b6040805160c08101825288815260208082018990529181018790528515156060820152841515608082015260a081018490526011805460018101825560009190915281518051929360059092027f31ecc21a745e3968a04e9570e4425bc18fa8019c68028196b546d1669c200c680192610a5c9284920190612202565b506020828101518051610a759260018501920190612202565b50604082015160028201556060820151600382018054608085015115156101000261ff00199315159390931661ffff199091161791909117905560a0909101516004909101555060019695505050505050565b336000908152600c60205260408120805460ff1615610ae657600080fd5b8060010154831115610af757600080fd5b600a546040516370a0823160e01b815230600482015284916001600160a01b0316906370a082319060240160206040518083038186803b158015610b3a57600080fd5b505afa158015610b4e573d6000803e3d6000fd5b505050506040513d601f19601f82011682018060405250810190610b7291906124a5565b1015610b7d57600080fd5b600a546001600160a01b031663a9059cbb336040516001600160e01b031960e084901b1681526001600160a01b03909116600482015260248101869052604401602060405180830381600087803b158015610bd757600080fd5b505af1158015610beb573d6000803e3d6000fd5b505050506040513d601f19601f82011682018060405250810190610c0f9190612378565b610c1857600080fd5b82816001016000828254610c2c9190612763565b925050819055508260146000828254610c45919061274b565b909155506001949350505050565b600080546001600160a01b0316336001600160a01b031614610c7457600080fd5b6040518060c00160405280888152602001878152602001868152602001851515815260200184151581526020018381525060118981548110610cb857610cb8612816565b90600052602060002090600502016000820151816000019080519060200190610ce2929190612202565b506020828101518051610cfb9260018501920190612202565b50604082015160028201556060820151600382018054608085015115156101000261ff00199315159390931661ffff199091161791909117905560a090910151600490910155506001979650505050505050565b3360009081526001602052604081205460ff16610d6b57600080fd5b6001600160a01b0382166000908152600c60205260409020805460ff1680610d965750806001015484115b15610da057600080fd5b83816001016000828254610699919061274b565b6000546001600160a01b0316336001600160a01b031614610dd457600080fd5b6001600160a01b038116610de757600080fd5b6040516001600160a01b038216907f71614071b88dee5e0b2ae578a9dd7b2ebbe9ae832ba419dc0242cd065a290b6c90600090a26001600160a01b03166000908152600160208190526040909120805460ff19169091179055565b6000546001600160a01b0316336001600160a01b031614610e6257600080fd5b6001600160a01b038116610e7557600080fd5b6040516001600160a01b038216907fa3b62bc36326052d97ea62d63c3d60308ed4c3ea8ac079dd8499f1e9c4f80c0f90600090a26001600160a01b03166000908152600160205260409020805460ff19169055565b600080546001600160a01b0316336001600160a01b031614610eeb57600080fd5b600b546040516370a0823160e01b81523060048201526000916001600160a01b0316906370a082319060240160206040518083038186803b158015610f2f57600080fd5b505afa158015610f43573d6000803e3d6000fd5b505050506040513d601f19601f82011682018060405250810190610f6791906124a5565b11610f7157600080fd5b600b546040516370a0823160e01b81523060048201526000916001600160a01b0316906370a082319060240160206040518083038186803b158015610fb557600080fd5b505afa158015610fc9573d6000803e3d6000fd5b505050506040513d601f19601f82011682018060405250810190610fed91906124a5565b600b5460005460405163a9059cbb60e01b81526001600160a01b03918216600482015260248101849052929350169063a9059cbb906044015b602060405180830381600087803b15801561104057600080fd5b505af1158015611054573d6000803e3d6000fd5b505050506040513d601f19601f820116820180604052508101906110789190612378565b50905090565b600080546001600160a01b0316336001600160a01b03161461109f57600080fd5b50600b80546001600160a01b0383166001600160a01b03199091161790556001919050565b600d60205281600052604060002081815481106110e057600080fd5b906000526020600020906005020160009150915050806000018054611104906127aa565b80601f0160208091040260200160405190810160405280929190818152602001828054611130906127aa565b801561117d5780601f106111525761010080835404028352916020019161117d565b820191906000526020600020905b81548152906001019060200180831161116057829003601f168201915b505050505090806001018054611192906127aa565b80601f01602080910402602001604051908101604052809291908181526020018280546111be906127aa565b801561120b5780601f106111e05761010080835404028352916020019161120b565b820191906000526020600020905b8154815290600101906020018083116111ee57829003601f168201915b505050600284015460038501546004909501549394909360ff8083169450610100909204909116915086565b6011818154811061124757600080fd5b9060005260206000209060050201600091509050806000018054611104906127aa565b6001600160a01b0381166000908152600d6020908152604080832080548251818502810185019093528083528493849084015b8282101561142c57838290600052602060002090600502016040518060c00160405290816000820180546112d0906127aa565b80601f01602080910402602001604051908101604052809291908181526020018280546112fc906127aa565b80156113495780601f1061131e57610100808354040283529160200191611349565b820191906000526020600020905b81548152906001019060200180831161132c57829003601f168201915b50505050508152602001600182018054611362906127aa565b80601f016020809104026020016040519081016040528092919081815260200182805461138e906127aa565b80156113db5780601f106113b0576101008083540402835291602001916113db565b820191906000526020600020905b8154815290600101906020018083116113be57829003601f168201915b50505091835250506002820154602080830191909152600383015460ff808216151560408501526101009091041615156060830152600490920154608090910152908252600192909201910161129d565b5050915195945050505050565b600080546001600160a01b0316336001600160a01b03161461145a57600080fd5b50600b80546001600160a01b0383166001600160a01b031991821681179092556003805490911690911790556001919050565b600060055442101561149e57600080fd5b336000908152600c602090815260408083208151608081018352815460ff161515815260018201549381019390935260028101549183019190915260030154606082015260118054919291859081106114f9576114f9612816565b90600052602060002090600502016040518060c0016040529081600082018054611522906127aa565b80601f016020809104026020016040519081016040528092919081815260200182805461154e906127aa565b801561159b5780601f106115705761010080835404028352916020019161159b565b820191906000526020600020905b81548152906001019060200180831161157e57829003601f168201915b505050505081526020016001820180546115b4906127aa565b80601f01602080910402602001604051908101604052809291908181526020018280546115e0906127aa565b801561162d5780601f106116025761010080835404028352916020019161162d565b820191906000526020600020905b81548152906001019060200180831161161057829003601f168201915b505050918352505060028201546020820152600382015460ff8082161515604084015261010090910416151560608083019190915260049092015460809091015281015190915061168b5761168184611c5b565b1561168b57600080fd5b81511561169757600080fd5b80608001516116ae5760a08101516116ae57600080fd5b6040810151600a546001600160a01b031663dd62ed3e336040516001600160e01b031960e084901b1681526001600160a01b03909116600482015230602482015260440160206040518083038186803b15801561170a57600080fd5b505afa15801561171e573d6000803e3d6000fd5b505050506040513d601f19601f8201168201806040525081019061174291906124a5565b101561174d57600080fd5b600a546004805460408481015181516323b872dd60e01b815233948101949094526001600160a01b0392831660248501526044840152519216916323b872dd916064808201926020929091908290030181600087803b1580156117af57600080fd5b505af11580156117c3573d6000803e3d6000fd5b505050506040513d601f19601f820116820180604052508101906117e79190612378565b6117f057600080fd5b80608001516118345760016011858154811061180e5761180e612816565b9060005260206000209060050201600401600082825461182e9190612763565b90915550505b336000908152600d6020908152604082208054600181018255908352918190208351805185946005029092019261187092849290910190612202565b5060208281015180516118899260018501920190612202565b5060408281015160028301556060830151600383018054608086015115156101000261ff00199315159390931661ffff199091161791909117905560a0909201516004909101558101516013805460009061069990849061274b565b600080546001600160a01b0316336001600160a01b03161461190657600080fd5b600a546040516370a0823160e01b81523060048201526000916001600160a01b0316906370a082319060240160206040518083038186803b15801561194a57600080fd5b505afa15801561195e573d6000803e3d6000fd5b505050506040513d601f19601f8201168201806040525081019061198291906124a5565b1161198c57600080fd5b600a546040516370a0823160e01b81523060048201526000916001600160a01b0316906370a082319060240160206040518083038186803b1580156119d057600080fd5b505afa1580156119e4573d6000803e3d6000fd5b505050506040513d601f19601f82011682018060405250810190611a0891906124a5565b600a5460005460405163a9059cbb60e01b81526001600160a01b03918216600482015260248101849052929350169063a9059cbb90604401611026565b6000546001600160a01b0316336001600160a01b031614611a6557600080fd5b6001600160a01b038116611a7857600080fd5b600080546040516001600160a01b03808516939216917f8be0079c531659141344cd1fd0a4f28419497f9722a3daafe3b4186f6b6457e091a3600080546001600160a01b0319166001600160a01b0392909216919091179055565b336000908152600c60205260408120805460ff1615611af157600080fd5b600a5483906001600160a01b031663dd62ed3e336040516001600160e01b031960e084901b1681526001600160a01b03909116600482015230602482015260440160206040518083038186803b158015611b4a57600080fd5b505afa158015611b5e573d6000803e3d6000fd5b505050506040513d601f19601f82011682018060405250810190611b8291906124a5565b1015611b8d57600080fd5b600a546001600160a01b03166323b872dd336040516001600160e01b031960e084901b1681526001600160a01b03909116600482015230602482015260448101869052606401602060405180830381600087803b158015611bed57600080fd5b505af1158015611c01573d6000803e3d6000fd5b505050506040513d601f19601f82011682018060405250810190611c259190612378565b611c2e57600080fd5b82816001016000828254611c42919061274b565b925050819055508260136000828254610c45919061274b565b60008060118381548110611c7157611c71612816565b90600052602060002090600502016040518060c0016040529081600082018054611c9a906127aa565b80601f0160208091040260200160405190810160405280929190818152602001828054611cc6906127aa565b8015611d135780601f10611ce857610100808354040283529160200191611d13565b820191906000526020600020905b815481529060010190602001808311611cf657829003601f168201915b50505050508152602001600182018054611d2c906127aa565b80601f0160208091040260200160405190810160405280929190818152602001828054611d58906127aa565b8015611da55780601f10611d7a57610100808354040283529160200191611da5565b820191906000526020600020905b815481529060010190602001808311611d8857829003601f168201915b505050918352505060028201546020820152600382015460ff80821615156040840152610100909104161515606082015260049091015460809091015290506000600d81336001600160a01b03166001600160a01b03168152602001908152602001600020805480602002602001604051908101604052809291908181526020016000905b82821015611fb957838290600052602060002090600502016040518060c0016040529081600082018054611e5d906127aa565b80601f0160208091040260200160405190810160405280929190818152602001828054611e89906127aa565b8015611ed65780601f10611eab57610100808354040283529160200191611ed6565b820191906000526020600020905b815481529060010190602001808311611eb957829003601f168201915b50505050508152602001600182018054611eef906127aa565b80601f0160208091040260200160405190810160405280929190818152602001828054611f1b906127aa565b8015611f685780601f10611f3d57610100808354040283529160200191611f68565b820191906000526020600020905b815481529060010190602001808311611f4b57829003601f168201915b50505091835250506002820154602080830191909152600383015460ff8082161515604085015261010090910416151560608301526004909201546080909101529082526001929092019101611e2a565b5050505090506000805b82518110156121f9578351604051611fde9190602001612623565b6040516020818303038152906040528051906020012083828151811061200657612006612816565b6020026020010151600001516040516020016120229190612623565b60405160208183030381529060405280519060200120141561204757600191506121f9565b60208085015160405161205a9201612623565b6040516020818303038152906040528051906020012083828151811061208257612082612816565b60200260200101516020015160405160200161209e9190612623565b6040516020818303038152906040528051906020012014156121e7576000805b6012548110156121e457601281815481106120db576120db612816565b90600052602060002090600302016000016040516020016120fc919061263f565b6040516020818303038152906040528051906020012085848151811061212457612124612816565b6020026020010151602001516040516020016121409190612623565b6040516020818303038152906040528051906020012014156121d25781612166816127e5565b9250506012818154811061217c5761217c612816565b90600052602060002090600302016002015482101580156121c45750601281815481106121ab576121ab612816565b600091825260209091206001600390920201015460ff16155b156121d257600193506121e4565b806121dc816127e5565b9150506120be565b50505b806121f1816127e5565b915050611fc3565b50949350505050565b82805461220e906127aa565b90600052602060002090601f0160209004810192826122305760008555612276565b82601f1061224957805160ff1916838001178555612276565b82800160010185558215612276579182015b8281111561227657825182559160200191906001019061225b565b50612282929150612286565b5090565b5b808211156122825760008155600101612287565b600082601f8301126122ac57600080fd5b813567ffffffffffffffff808211156122c7576122c761282c565b604051601f8301601f19908116603f011681019082821181831017156122ef576122ef61282c565b8160405283815286602085880101111561230857600080fd5b836020870160208301376000602085830101528094505050505092915050565b60006020828403121561233a57600080fd5b813561234581612842565b9392505050565b6000806040838503121561235f57600080fd5b823561236a81612842565b946020939093013593505050565b60006020828403121561238a57600080fd5b81516123458161285a565b6000806000606084860312156123aa57600080fd5b833567ffffffffffffffff8111156123c157600080fd5b6123cd8682870161229b565b93505060208401356123de8161285a565b929592945050506040919091013590565b60008060008060008060c0878903121561240857600080fd5b863567ffffffffffffffff8082111561242057600080fd5b61242c8a838b0161229b565b9750602089013591508082111561244257600080fd5b5061244f89828a0161229b565b9550506040870135935060608701356124678161285a565b925060808701356124778161285a565b8092505060a087013590509295509295509295565b60006020828403121561249e57600080fd5b5035919050565b6000602082840312156124b757600080fd5b5051919050565b600080604083850312156124d157600080fd5b8235915060208301356124e381612842565b809150509250929050565b6000806000806080858703121561250457600080fd5b84359350602085013567ffffffffffffffff81111561252257600080fd5b61252e8782880161229b565b935050604085013561253f8161285a565b9396929550929360600135925050565b600080600080600080600060e0888a03121561256a57600080fd5b87359650602088013567ffffffffffffffff8082111561258957600080fd5b6125958b838c0161229b565b975060408a01359150808211156125ab57600080fd5b506125b88a828b0161229b565b9550506060880135935060808801356125d08161285a565b925060a08801356125e08161285a565b8092505060c0880135905092959891949750929550565b6000815180845261260f81602086016020860161277a565b601f01601f19169290920160200192915050565b6000825161263581846020870161277a565b9190910192915050565b600080835481600182811c91508083168061265b57607f831692505b602080841082141561267b57634e487b7160e01b86526022600452602486fd5b81801561268f57600181146126a0576126cd565b60ff198616895284890196506126cd565b60008a81526020902060005b868110156126c55781548b8201529085019083016126ac565b505084890196505b509498975050505050505050565b6060815260006126ee60608301866125f7565b93151560208301525060400152919050565b60c08152600061271360c08301896125f7565b828103602084015261272581896125f7565b604084019790975250509215156060840152901515608083015260a09091015292915050565b6000821982111561275e5761275e612800565b500190565b60008282101561277557612775612800565b500390565b60005b8381101561279557818101518382015260200161277d565b838111156127a4576000848401525b50505050565b600181811c908216806127be57607f821691505b602082108114156127df57634e487b7160e01b600052602260045260246000fd5b50919050565b60006000198214156127f9576127f9612800565b5060010190565b634e487b7160e01b600052601160045260246000fd5b634e487b7160e01b600052603260045260246000fd5b634e487b7160e01b600052604160045260246000fd5b6001600160a01b038116811461285757600080fd5b50565b801515811461285757600080fdfea26469706673582212205637ba6deeeabfbdaa6af3e8d981ea3a9e02bdd6f756b4d8936c4cf1af0a1e3264736f6c63430008070033bb8a6a4669ba250d26cd7a459eca9d215f8307e33aebe50379bc5a3617ec344431ecc21a745e3968a04e9570e4425bc18fa8019c68028196b546d1669c200c68",
    "sourcePath": "c:/Users/STC/Documents/GitHub/FootBall-ICO/contracts/Market 2.0/market-v2.sol",
    "compiler": {
        "name": "solc",
        "version": "0.8.7+commit.e28d00a7"
    },
    "functionHashes": {
        "ChangePrincipalToken(address)": "cc360058",
        "ChangeTokenOTRO(address)": "96ba5363",
        "MAX_CSC()": "d47edbaa",
        "MIN_CSC()": "91eb34e0",
        "TIME_CLAIM()": "d60fd9b9",
        "addItem(string,string,uint256,bool,bool,uint256)": "36ec5fe4",
        "addOption(string,bool,uint256)": "00cffbcd",
        "admin(address)": "63a846f8",
        "adminWallet()": "36b19cd7",
        "asignarCoinsTo(uint256,address)": "571c94d7",
        "buyCoins(uint256)": "fe468196",
        "buyItem(uint256)": "e7fb74c7",
        "editItem(uint256,string,string,uint256,bool,bool,uint256)": "51e954f7",
        "editOption(uint256,string,bool,uint256)": "09650b8e",
        "gastarCoinsfrom(uint256,address)": "035092d9",
        "idNfts(uint256)": "a750a026",
        "inventario(address,uint256)": "ab97fd60",
        "investors(address)": "6f7bc9be",
        "items(uint256)": "bfb231d2",
        "largoInventario(address)": "c991c474",
        "largoItems()": "238393e4",
        "largoOptions()": "dd62e6b3",
        "makeNewAdmin(address)": "69ed1e0a",
        "makeRemoveAdmin(address)": "70a0966b",
        "nfts(uint256)": "265aa621",
        "opciones(uint256)": "17262d8a",
        "owner()": "8da5cb5b",
        "redimETH()": "2e9928d3",
        "redimOTRO()": "8929cbc5",
        "redimTokenPrincipal01()": "eb5b455a",
        "redimTokenPrincipal02(uint256)": "1140e85b",
        "sellCoins(uint256)": "51a4cd73",
        "tipoNFT(uint256)": "b516ca7c",
        "token()": "fc0c546a",
        "tokenTRC721()": "6d3ea6ce",
        "transferOwnership(address)": "f2fde38b",
        "ventaPublica()": "8792fa47"
    },
    "gasEstimates": {
        "creation": {
            "codeDepositCost": "2079600",
            "executionCost": "infinite",
            "totalCost": "infinite"
        },
        "external": {
            "ChangePrincipalToken(address)": "51082",
            "ChangeTokenOTRO(address)": "26827",
            "MAX_CSC()": "2384",
            "MIN_CSC()": "2407",
            "TIME_CLAIM()": "2406",
            "addItem(string,string,uint256,bool,bool,uint256)": "infinite",
            "addOption(string,bool,uint256)": "infinite",
            "admin(address)": "2559",
            "adminWallet()": "2471",
            "asignarCoinsTo(uint256,address)": "31350",
            "buyCoins(uint256)": "infinite",
            "buyItem(uint256)": "infinite",
            "editItem(uint256,string,string,uint256,bool,bool,uint256)": "infinite",
            "editOption(uint256,string,bool,uint256)": "infinite",
            "gastarCoinsfrom(uint256,address)": "31304",
            "idNfts(uint256)": "2544",
            "inventario(address,uint256)": "infinite",
            "investors(address)": "9041",
            "items(uint256)": "infinite",
            "largoInventario(address)": "infinite",
            "largoItems()": "2360",
            "largoOptions()": "2425",
            "makeNewAdmin(address)": "28043",
            "makeRemoveAdmin(address)": "28091",
            "nfts(uint256)": "2567",
            "opciones(uint256)": "infinite",
            "owner()": "2427",
            "redimETH()": "infinite",
            "redimOTRO()": "infinite",
            "redimTokenPrincipal01()": "infinite",
            "redimTokenPrincipal02(uint256)": "infinite",
            "sellCoins(uint256)": "infinite",
            "tipoNFT(uint256)": "2549",
            "token()": "2447",
            "tokenTRC721()": "2426",
            "transferOwnership(address)": "30500",
            "ventaPublica()": "2341"
        },
        "internal": {
            "viewDuplicatedItem(uint256)": "infinite"
        }
    }
}