{
    "contractName": "DiamondCSC",
    "abi": [
        {
            "inputs": [],
            "stateMutability": "nonpayable",
            "type": "constructor"
        },
        {
            "anonymous": false,
            "inputs": [
                {
                    "indexed": true,
                    "internalType": "address",
                    "name": "owner",
                    "type": "address"
                },
                {
                    "indexed": true,
                    "internalType": "address",
                    "name": "spender",
                    "type": "address"
                },
                {
                    "indexed": false,
                    "internalType": "uint256",
                    "name": "value",
                    "type": "uint256"
                }
            ],
            "name": "Approval",
            "type": "event"
        },
        {
            "anonymous": false,
            "inputs": [
                {
                    "indexed": true,
                    "internalType": "address",
                    "name": "from",
                    "type": "address"
                },
                {
                    "indexed": true,
                    "internalType": "address",
                    "name": "to",
                    "type": "address"
                },
                {
                    "indexed": false,
                    "internalType": "uint256",
                    "name": "value",
                    "type": "uint256"
                }
            ],
            "name": "Transfer",
            "type": "event"
        },
        {
            "inputs": [
                {
                    "internalType": "address",
                    "name": "owner",
                    "type": "address"
                },
                {
                    "internalType": "address",
                    "name": "spender",
                    "type": "address"
                }
            ],
            "name": "allowance",
            "outputs": [
                {
                    "internalType": "uint256",
                    "name": "",
                    "type": "uint256"
                }
            ],
            "stateMutability": "view",
            "type": "function"
        },
        {
            "inputs": [
                {
                    "internalType": "address",
                    "name": "spender",
                    "type": "address"
                },
                {
                    "internalType": "uint256",
                    "name": "amount",
                    "type": "uint256"
                }
            ],
            "name": "approve",
            "outputs": [
                {
                    "internalType": "bool",
                    "name": "",
                    "type": "bool"
                }
            ],
            "stateMutability": "nonpayable",
            "type": "function"
        },
        {
            "inputs": [
                {
                    "internalType": "address",
                    "name": "account",
                    "type": "address"
                }
            ],
            "name": "balanceOf",
            "outputs": [
                {
                    "internalType": "uint256",
                    "name": "",
                    "type": "uint256"
                }
            ],
            "stateMutability": "view",
            "type": "function"
        },
        {
            "inputs": [],
            "name": "burn",
            "outputs": [],
            "stateMutability": "nonpayable",
            "type": "function"
        },
        {
            "inputs": [
                {
                    "internalType": "uint256",
                    "name": "amount",
                    "type": "uint256"
                }
            ],
            "name": "buyToken",
            "outputs": [],
            "stateMutability": "nonpayable",
            "type": "function"
        },
        {
            "inputs": [],
            "name": "decimals",
            "outputs": [
                {
                    "internalType": "uint256",
                    "name": "",
                    "type": "uint256"
                }
            ],
            "stateMutability": "view",
            "type": "function"
        },
        {
            "inputs": [
                {
                    "internalType": "address",
                    "name": "spender",
                    "type": "address"
                },
                {
                    "internalType": "uint256",
                    "name": "subtractedValue",
                    "type": "uint256"
                }
            ],
            "name": "decreaseAllowance",
            "outputs": [
                {
                    "internalType": "bool",
                    "name": "",
                    "type": "bool"
                }
            ],
            "stateMutability": "nonpayable",
            "type": "function"
        },
        {
            "inputs": [
                {
                    "internalType": "address",
                    "name": "spender",
                    "type": "address"
                },
                {
                    "internalType": "uint256",
                    "name": "addedValue",
                    "type": "uint256"
                }
            ],
            "name": "increaseAllowance",
            "outputs": [
                {
                    "internalType": "bool",
                    "name": "",
                    "type": "bool"
                }
            ],
            "stateMutability": "nonpayable",
            "type": "function"
        },
        {
            "inputs": [],
            "name": "name",
            "outputs": [
                {
                    "internalType": "string",
                    "name": "",
                    "type": "string"
                }
            ],
            "stateMutability": "view",
            "type": "function"
        },
        {
            "inputs": [],
            "name": "price",
            "outputs": [
                {
                    "internalType": "uint256",
                    "name": "",
                    "type": "uint256"
                }
            ],
            "stateMutability": "view",
            "type": "function"
        },
        {
            "inputs": [
                {
                    "internalType": "uint256",
                    "name": "amount",
                    "type": "uint256"
                }
            ],
            "name": "sellToken",
            "outputs": [],
            "stateMutability": "nonpayable",
            "type": "function"
        },
        {
            "inputs": [],
            "name": "symbol",
            "outputs": [
                {
                    "internalType": "string",
                    "name": "",
                    "type": "string"
                }
            ],
            "stateMutability": "view",
            "type": "function"
        },
        {
            "inputs": [],
            "name": "tokenPool",
            "outputs": [
                {
                    "internalType": "address",
                    "name": "",
                    "type": "address"
                }
            ],
            "stateMutability": "view",
            "type": "function"
        },
        {
            "inputs": [],
            "name": "totalSupply",
            "outputs": [
                {
                    "internalType": "uint256",
                    "name": "",
                    "type": "uint256"
                }
            ],
            "stateMutability": "view",
            "type": "function"
        },
        {
            "inputs": [
                {
                    "internalType": "address",
                    "name": "recipient",
                    "type": "address"
                },
                {
                    "internalType": "uint256",
                    "name": "amount",
                    "type": "uint256"
                }
            ],
            "name": "transfer",
            "outputs": [
                {
                    "internalType": "bool",
                    "name": "",
                    "type": "bool"
                }
            ],
            "stateMutability": "nonpayable",
            "type": "function"
        },
        {
            "inputs": [
                {
                    "internalType": "address",
                    "name": "sender",
                    "type": "address"
                },
                {
                    "internalType": "address",
                    "name": "recipient",
                    "type": "address"
                },
                {
                    "internalType": "uint256",
                    "name": "amount",
                    "type": "uint256"
                }
            ],
            "name": "transferFrom",
            "outputs": [
                {
                    "internalType": "bool",
                    "name": "",
                    "type": "bool"
                }
            ],
            "stateMutability": "nonpayable",
            "type": "function"
        }
    ],
    "bytecode": "60c0604052600b60808190526a4469616d6f6e642043534360a81b60a09081526200002e9160029190620000b9565b50604080518082019091526004808252634443534360e01b60209092019182526200005c91600391620000b9565b506012600455600680546001600160a01b03199081167355d398326f99059ff775485246999027b31979551791829055600780549091166001600160a01b0392909216919091179055348015620000b257600080fd5b506200019c565b828054620000c7906200015f565b90600052602060002090601f016020900481019282620000eb576000855562000136565b82601f106200010657805160ff191683800117855562000136565b8280016001018555821562000136579182015b828111156200013657825182559160200191906001019062000119565b506200014492915062000148565b5090565b5b8082111562000144576000815560010162000149565b6002810460018216806200017457607f821691505b602082108114156200019657634e487b7160e01b600052602260045260246000fd5b50919050565b6110de80620001ac6000396000f3fe608060405234801561001057600080fd5b50600436106101005760003560e01c80633950935111610097578063a035b1fe11610066578063a035b1fe146101e6578063a457c2d7146101ee578063a9059cbb14610201578063dd62ed3e1461021457610100565b806339509351146101b057806344df8e70146101c357806370a08231146101cb57806395d89b41146101de57610100565b80632397e4d7116100d35780632397e4d71461016d57806323b872dd146101825780632d296bf114610195578063313ce567146101a857610100565b806306fdde0314610105578063095ea7b314610123578063104e99291461014357806318160ddd14610158575b600080fd5b61010d610227565b60405161011a9190610c98565b60405180910390f35b610136610131366004610bc3565b6102ba565b60405161011a9190610c8d565b61014b6102d8565b60405161011a9190610c3c565b6101606102e7565b60405161011a9190610ecc565b61018061017b366004610c0c565b6102ed565b005b610136610190366004610b88565b6103e0565b6101806101a3366004610c0c565b610482565b61016061055d565b6101366101be366004610bc3565b610563565b6101806105b2565b6101606101d9366004610b3c565b6105e3565b61010d610602565b610160610611565b6101366101fc366004610bc3565b6106d7565b61013661020f366004610bc3565b610752565b610160610222366004610b56565b610766565b60606002805461023690611057565b80601f016020809104026020016040519081016040528092919081815260200182805461026290611057565b80156102af5780601f10610284576101008083540402835291602001916102af565b820191906000526020600020905b81548152906001019060200180831161029257829003601f168201915b505050505090505b90565b60006102ce6102c7610791565b8484610795565b5060015b92915050565b6006546001600160a01b031681565b60055490565b600061031d6102fa61055d565b61030590600a610f53565b610317610310610611565b8590610849565b9061087b565b6007549091506001600160a01b031663a9059cbb610339610791565b6103496064610317866062610849565b6040518363ffffffff1660e01b8152600401610366929190610c74565b602060405180830381600087803b15801561038057600080fd5b505af1158015610394573d6000803e3d6000fd5b505050506040513d601f19601f820116820180604052508101906103b89190610bec565b6103c257506103dd565b6103d36103cd610791565b8361089d565b6103db6105b2565b505b50565b60006103ed848484610948565b6001600160a01b03841660009081526001602052604081208161040e610791565b6001600160a01b03166001600160a01b031681526020019081526020016000205490508281101561045a5760405162461bcd60e51b815260040161045190610db6565b60405180910390fd5b61047585610466610791565b6104708487610a65565b610795565b60019150505b9392505050565b60006104a561048f610611565b61031761049a61055d565b61031090600a610f53565b6007549091506001600160a01b03166323b872dd6104c1610791565b30846040518463ffffffff1660e01b81526004016104e193929190610c50565b602060405180830381600087803b1580156104fb57600080fd5b505af115801561050f573d6000803e3d6000fd5b505050506040513d601f19601f820116820180604052508101906105339190610bec565b61053d57506103dd565b6103d3610548610791565b6105586064610317866063610849565b610a80565b60045490565b60006102ce610570610791565b84846001600061057e610791565b6001600160a01b03908116825260208083019390935260409182016000908120918b16815292529020546104709190610ed5565b30600090815260208190526040902054156105e157306000818152602081905260409020546105e1919061089d565b565b6001600160a01b0381166000908152602081905260409020545b919050565b60606003805461023690611057565b6007546040516370a0823160e01b815260009182916001600160a01b03909116906370a0823190610646903090600401610c3c565b60206040518083038186803b15801561065e57600080fd5b505afa158015610672573d6000803e3d6000fd5b505050506040513d601f19601f820116820180604052508101906106969190610c24565b6005549091508115806106a7575080155b156106c8576106b461055d565b6106bf90600a610f53565b925050506102b7565b6106bf8161031761049a61055d565b600080600160006106e6610791565b6001600160a01b03908116825260208083019390935260409182016000908120918816815292529020549050828110156107325760405162461bcd60e51b815260040161045190610e87565b61074861073d610791565b856104708685611040565b5060019392505050565b60006102ce61075f610791565b8484610948565b6001600160a01b03918216600090815260016020908152604080832093909416825291909152205490565b3390565b6001600160a01b0383166107bb5760405162461bcd60e51b815260040161045190610e43565b6001600160a01b0382166107e15760405162461bcd60e51b815260040161045190610d2e565b6001600160a01b0380841660008181526001602090815260408083209487168084529490915290819020849055517f8c5be1e5ebec7d5bd14f71427d1e84f3dd0314c0f7b2291e5b200ac8c7c3b9259061083c908590610ecc565b60405180910390a3505050565b600082610858575060006102d2565b60006108648385611021565b9050826108718583610eed565b1461047b57600080fd5b600080821161088957600080fd5b60006108958385610eed565b949350505050565b6001600160a01b038216600090815260208190526040902054818110156108d65760405162461bcd60e51b815260040161045190610d70565b6108e08282611040565b6001600160a01b038416600090815260208190526040902055600554610907908390611040565b6005556040516000906001600160a01b038516907fddf252ad1be2c89b69c2b068fc378daa952ba7f163c4a11628f55a4df523b3ef9061083c908690610ecc565b6001600160a01b03831661096e5760405162461bcd60e51b815260040161045190610dfe565b6001600160a01b0382166109945760405162461bcd60e51b815260040161045190610ceb565b6001600160a01b038316600090815260208190526040902054818110156109cd5760405162461bcd60e51b815260040161045190610d70565b6109d78282611040565b6001600160a01b038086166000908152602081905260408082209390935590851681529081208054849290610a0d908490610ed5565b92505081905550826001600160a01b0316846001600160a01b03167fddf252ad1be2c89b69c2b068fc378daa952ba7f163c4a11628f55a4df523b3ef84604051610a579190610ecc565b60405180910390a350505050565b600082821115610a7457600080fd5b60006108958385611040565b6001600160a01b038216600090815260208190526040902054610aa38183610b09565b6001600160a01b038416600090815260208190526040902055600554610ac99083610b09565b6005556040516001600160a01b0384169030907fddf252ad1be2c89b69c2b068fc378daa952ba7f163c4a11628f55a4df523b3ef9061083c908690610ecc565b600080610b168385610ed5565b90508381101561047b57600080fd5b80356001600160a01b03811681146105fd57600080fd5b600060208284031215610b4d578081fd5b61047b82610b25565b60008060408385031215610b68578081fd5b610b7183610b25565b9150610b7f60208401610b25565b90509250929050565b600080600060608486031215610b9c578081fd5b610ba584610b25565b9250610bb360208501610b25565b9150604084013590509250925092565b60008060408385031215610bd5578182fd5b610bde83610b25565b946020939093013593505050565b600060208284031215610bfd578081fd5b8151801515811461047b578182fd5b600060208284031215610c1d578081fd5b5035919050565b600060208284031215610c35578081fd5b5051919050565b6001600160a01b0391909116815260200190565b6001600160a01b039384168152919092166020820152604081019190915260600190565b6001600160a01b03929092168252602082015260400190565b901515815260200190565b6000602080835283518082850152825b81811015610cc457858101830151858201604001528201610ca8565b81811115610cd55783604083870101525b50601f01601f1916929092016040019392505050565b60208082526023908201527f45524332303a207472616e7366657220746f20746865207a65726f206164647260408201526265737360e81b606082015260800190565b60208082526022908201527f45524332303a20617070726f766520746f20746865207a65726f206164647265604082015261737360f01b606082015260800190565b60208082526026908201527f45524332303a207472616e7366657220616d6f756e7420657863656564732062604082015265616c616e636560d01b606082015260800190565b60208082526028908201527f45524332303a207472616e7366657220616d6f756e74206578636565647320616040820152676c6c6f77616e636560c01b606082015260800190565b60208082526025908201527f45524332303a207472616e736665722066726f6d20746865207a65726f206164604082015264647265737360d81b606082015260800190565b60208082526024908201527f45524332303a20617070726f76652066726f6d20746865207a65726f206164646040820152637265737360e01b606082015260800190565b60208082526025908201527f45524332303a2064656372656173656420616c6c6f77616e63652062656c6f77604082015264207a65726f60d81b606082015260800190565b90815260200190565b60008219821115610ee857610ee8611092565b500190565b600082610f0857634e487b7160e01b81526012600452602481fd5b500490565b80825b6001808611610f1f5750610f4a565b818704821115610f3157610f31611092565b80861615610f3e57918102915b9490941c938002610f10565b94509492505050565b600061047b6000198484600082610f6c5750600161047b565b81610f795750600061047b565b8160018114610f8f5760028114610f9957610fc6565b600191505061047b565b60ff841115610faa57610faa611092565b6001841b915084821115610fc057610fc0611092565b5061047b565b5060208310610133831016604e8410600b8410161715610ff9575081810a83811115610ff457610ff4611092565b61047b565b6110068484846001610f0d565b80860482111561101857611018611092565b02949350505050565b600081600019048311821515161561103b5761103b611092565b500290565b60008282101561105257611052611092565b500390565b60028104600182168061106b57607f821691505b6020821081141561108c57634e487b7160e01b600052602260045260246000fd5b50919050565b634e487b7160e01b600052601160045260246000fdfea26469706673582212205220a7fb332859c338740c326515f462f95f7175615194a05faa28555e56458464736f6c63430008000033",
    "sourcePath": "c:/Users/STC/Documents/GitHub/Crypto-Soccer/contracts/Token Diamond CSC (BEP-20)/DiamondCSC.sol",
    "compiler": {
        "name": "solc",
        "version": "0.8.0+commit.c7dfd78e"
    },
    "functionHashes": {
        "allowance(address,address)": "dd62ed3e",
        "approve(address,uint256)": "095ea7b3",
        "balanceOf(address)": "70a08231",
        "burn()": "44df8e70",
        "buyToken(uint256)": "2d296bf1",
        "decimals()": "313ce567",
        "decreaseAllowance(address,uint256)": "a457c2d7",
        "increaseAllowance(address,uint256)": "39509351",
        "name()": "06fdde03",
        "price()": "a035b1fe",
        "sellToken(uint256)": "2397e4d7",
        "symbol()": "95d89b41",
        "tokenPool()": "104e9929",
        "totalSupply()": "18160ddd",
        "transfer(address,uint256)": "a9059cbb",
        "transferFrom(address,address,uint256)": "23b872dd"
    },
    "gasEstimates": {
        "creation": {
            "codeDepositCost": "863600",
            "executionCost": "infinite",
            "totalCost": "infinite"
        },
        "external": {
            "allowance(address,address)": "infinite",
            "approve(address,uint256)": "22630",
            "balanceOf(address)": "infinite",
            "burn()": "infinite",
            "buyToken(uint256)": "infinite",
            "decimals()": "1117",
            "decreaseAllowance(address,uint256)": "infinite",
            "increaseAllowance(address,uint256)": "infinite",
            "name()": "infinite",
            "price()": "infinite",
            "sellToken(uint256)": "infinite",
            "symbol()": "infinite",
            "tokenPool()": "1138",
            "totalSupply()": "1118",
            "transfer(address,uint256)": "44562",
            "transferFrom(address,address,uint256)": "infinite"
        },
        "internal": {
            "_approve(address,address,uint256)": "infinite",
            "_burn(address,uint256)": "infinite",
            "_print(address,uint256)": "infinite",
            "_transfer(address,address,uint256)": "infinite"
        }
    }
}