{
    "contractName": "Match",
    "abi": [
        {
            "inputs": [],
            "stateMutability": "nonpayable",
            "type": "constructor"
        },
        {
            "anonymous": false,
            "inputs": [
                {
                    "indexed": true,
                    "internalType": "address",
                    "name": "admin",
                    "type": "address"
                }
            ],
            "name": "AdminRemoved",
            "type": "event"
        },
        {
            "anonymous": false,
            "inputs": [
                {
                    "indexed": true,
                    "internalType": "address",
                    "name": "admin",
                    "type": "address"
                }
            ],
            "name": "NewAdmin",
            "type": "event"
        },
        {
            "anonymous": false,
            "inputs": [
                {
                    "indexed": true,
                    "internalType": "address",
                    "name": "previousOwner",
                    "type": "address"
                },
                {
                    "indexed": true,
                    "internalType": "address",
                    "name": "newOwner",
                    "type": "address"
                }
            ],
            "name": "OwnershipTransferred",
            "type": "event"
        },
        {
            "stateMutability": "payable",
            "type": "fallback"
        },
        {
            "inputs": [],
            "name": "ReIniciar",
            "outputs": [],
            "stateMutability": "nonpayable",
            "type": "function"
        },
        {
            "inputs": [
                {
                    "internalType": "address",
                    "name": "",
                    "type": "address"
                }
            ],
            "name": "admin",
            "outputs": [
                {
                    "internalType": "bool",
                    "name": "",
                    "type": "bool"
                }
            ],
            "stateMutability": "view",
            "type": "function"
        },
        {
            "inputs": [
                {
                    "internalType": "uint256",
                    "name": "val",
                    "type": "uint256"
                }
            ],
            "name": "aprobarBalnc",
            "outputs": [],
            "stateMutability": "nonpayable",
            "type": "function"
        },
        {
            "inputs": [],
            "name": "aumento",
            "outputs": [
                {
                    "internalType": "uint256",
                    "name": "",
                    "type": "uint256"
                }
            ],
            "stateMutability": "view",
            "type": "function"
        },
        {
            "inputs": [],
            "name": "contractStaking",
            "outputs": [
                {
                    "internalType": "address",
                    "name": "",
                    "type": "address"
                }
            ],
            "stateMutability": "view",
            "type": "function"
        },
        {
            "inputs": [
                {
                    "internalType": "address",
                    "name": "",
                    "type": "address"
                },
                {
                    "internalType": "uint256",
                    "name": "",
                    "type": "uint256"
                }
            ],
            "name": "fans",
            "outputs": [
                {
                    "internalType": "bool",
                    "name": "",
                    "type": "bool"
                }
            ],
            "stateMutability": "view",
            "type": "function"
        },
        {
            "inputs": [],
            "name": "fin",
            "outputs": [
                {
                    "internalType": "uint256",
                    "name": "",
                    "type": "uint256"
                }
            ],
            "stateMutability": "view",
            "type": "function"
        },
        {
            "inputs": [],
            "name": "ganador",
            "outputs": [
                {
                    "internalType": "uint256",
                    "name": "",
                    "type": "uint256"
                }
            ],
            "stateMutability": "view",
            "type": "function"
        },
        {
            "inputs": [],
            "name": "inicio",
            "outputs": [
                {
                    "internalType": "uint256",
                    "name": "",
                    "type": "uint256"
                }
            ],
            "stateMutability": "view",
            "type": "function"
        },
        {
            "inputs": [
                {
                    "internalType": "uint256",
                    "name": "",
                    "type": "uint256"
                }
            ],
            "name": "items",
            "outputs": [
                {
                    "internalType": "bool",
                    "name": "",
                    "type": "bool"
                }
            ],
            "stateMutability": "view",
            "type": "function"
        },
        {
            "inputs": [
                {
                    "internalType": "address",
                    "name": "_user",
                    "type": "address"
                }
            ],
            "name": "largoFanItems",
            "outputs": [
                {
                    "internalType": "uint256",
                    "name": "",
                    "type": "uint256"
                }
            ],
            "stateMutability": "view",
            "type": "function"
        },
        {
            "inputs": [],
            "name": "largoItems",
            "outputs": [
                {
                    "internalType": "uint256",
                    "name": "",
                    "type": "uint256"
                }
            ],
            "stateMutability": "view",
            "type": "function"
        },
        {
            "inputs": [
                {
                    "internalType": "address payable",
                    "name": "_newadmin",
                    "type": "address"
                }
            ],
            "name": "makeNewAdmin",
            "outputs": [],
            "stateMutability": "nonpayable",
            "type": "function"
        },
        {
            "inputs": [
                {
                    "internalType": "address payable",
                    "name": "_oldadmin",
                    "type": "address"
                }
            ],
            "name": "makeRemoveAdmin",
            "outputs": [],
            "stateMutability": "nonpayable",
            "type": "function"
        },
        {
            "inputs": [],
            "name": "owner",
            "outputs": [
                {
                    "internalType": "address payable",
                    "name": "",
                    "type": "address"
                }
            ],
            "stateMutability": "view",
            "type": "function"
        },
        {
            "inputs": [],
            "name": "pool",
            "outputs": [
                {
                    "internalType": "uint256",
                    "name": "",
                    "type": "uint256"
                }
            ],
            "stateMutability": "view",
            "type": "function"
        },
        {
            "inputs": [],
            "name": "porcentStaking",
            "outputs": [
                {
                    "internalType": "uint256",
                    "name": "",
                    "type": "uint256"
                }
            ],
            "stateMutability": "view",
            "type": "function"
        },
        {
            "inputs": [],
            "name": "precio",
            "outputs": [
                {
                    "internalType": "uint256",
                    "name": "",
                    "type": "uint256"
                }
            ],
            "stateMutability": "view",
            "type": "function"
        },
        {
            "inputs": [],
            "name": "reclamar",
            "outputs": [],
            "stateMutability": "nonpayable",
            "type": "function"
        },
        {
            "inputs": [],
            "name": "redimBNB",
            "outputs": [
                {
                    "internalType": "uint256",
                    "name": "",
                    "type": "uint256"
                }
            ],
            "stateMutability": "nonpayable",
            "type": "function"
        },
        {
            "inputs": [
                {
                    "internalType": "uint256",
                    "name": "_value",
                    "type": "uint256"
                }
            ],
            "name": "redimToken",
            "outputs": [
                {
                    "internalType": "uint256",
                    "name": "",
                    "type": "uint256"
                }
            ],
            "stateMutability": "nonpayable",
            "type": "function"
        },
        {
            "inputs": [
                {
                    "internalType": "uint256",
                    "name": "_item",
                    "type": "uint256"
                }
            ],
            "name": "setGanador",
            "outputs": [
                {
                    "internalType": "uint256",
                    "name": "",
                    "type": "uint256"
                }
            ],
            "stateMutability": "nonpayable",
            "type": "function"
        },
        {
            "inputs": [
                {
                    "internalType": "address",
                    "name": "_tokebp20",
                    "type": "address"
                }
            ],
            "name": "setToken",
            "outputs": [
                {
                    "internalType": "address",
                    "name": "",
                    "type": "address"
                }
            ],
            "stateMutability": "nonpayable",
            "type": "function"
        },
        {
            "inputs": [],
            "name": "tiempo",
            "outputs": [
                {
                    "internalType": "uint256",
                    "name": "",
                    "type": "uint256"
                }
            ],
            "stateMutability": "view",
            "type": "function"
        },
        {
            "inputs": [],
            "name": "token",
            "outputs": [
                {
                    "internalType": "address",
                    "name": "",
                    "type": "address"
                }
            ],
            "stateMutability": "view",
            "type": "function"
        },
        {
            "inputs": [
                {
                    "internalType": "address payable",
                    "name": "newOwner",
                    "type": "address"
                }
            ],
            "name": "transferOwnership",
            "outputs": [],
            "stateMutability": "nonpayable",
            "type": "function"
        },
        {
            "inputs": [
                {
                    "internalType": "uint256",
                    "name": "_inicio",
                    "type": "uint256"
                },
                {
                    "internalType": "uint256",
                    "name": "_fin",
                    "type": "uint256"
                }
            ],
            "name": "updateFases",
            "outputs": [
                {
                    "internalType": "bool",
                    "name": "",
                    "type": "bool"
                }
            ],
            "stateMutability": "nonpayable",
            "type": "function"
        },
        {
            "inputs": [
                {
                    "internalType": "uint256",
                    "name": "_precio",
                    "type": "uint256"
                },
                {
                    "internalType": "uint256",
                    "name": "_aumento",
                    "type": "uint256"
                }
            ],
            "name": "updatePrecios",
            "outputs": [
                {
                    "internalType": "bool",
                    "name": "",
                    "type": "bool"
                }
            ],
            "stateMutability": "nonpayable",
            "type": "function"
        },
        {
            "inputs": [
                {
                    "internalType": "address",
                    "name": "_wallet",
                    "type": "address"
                },
                {
                    "internalType": "uint256",
                    "name": "_porcent",
                    "type": "uint256"
                }
            ],
            "name": "updateWalletStaking",
            "outputs": [],
            "stateMutability": "nonpayable",
            "type": "function"
        },
        {
            "inputs": [
                {
                    "internalType": "address[]",
                    "name": "_wallets",
                    "type": "address[]"
                },
                {
                    "internalType": "uint256[]",
                    "name": "_porcents",
                    "type": "uint256[]"
                }
            ],
            "name": "updateWalletsFees",
            "outputs": [],
            "stateMutability": "nonpayable",
            "type": "function"
        },
        {
            "inputs": [],
            "name": "valor",
            "outputs": [
                {
                    "internalType": "uint256",
                    "name": "",
                    "type": "uint256"
                }
            ],
            "stateMutability": "view",
            "type": "function"
        },
        {
            "inputs": [
                {
                    "internalType": "address",
                    "name": "_user",
                    "type": "address"
                },
                {
                    "internalType": "uint256",
                    "name": "_i",
                    "type": "uint256"
                }
            ],
            "name": "verFanItems",
            "outputs": [
                {
                    "internalType": "bool",
                    "name": "",
                    "type": "bool"
                }
            ],
            "stateMutability": "view",
            "type": "function"
        },
        {
            "inputs": [],
            "name": "verGanador",
            "outputs": [
                {
                    "internalType": "uint256",
                    "name": "",
                    "type": "uint256"
                }
            ],
            "stateMutability": "view",
            "type": "function"
        },
        {
            "inputs": [
                {
                    "internalType": "uint256",
                    "name": "_item",
                    "type": "uint256"
                }
            ],
            "name": "votar",
            "outputs": [
                {
                    "internalType": "bool",
                    "name": "",
                    "type": "bool"
                }
            ],
            "stateMutability": "nonpayable",
            "type": "function"
        },
        {
            "inputs": [
                {
                    "internalType": "uint256",
                    "name": "",
                    "type": "uint256"
                }
            ],
            "name": "votos",
            "outputs": [
                {
                    "internalType": "uint256",
                    "name": "",
                    "type": "uint256"
                }
            ],
            "stateMutability": "view",
            "type": "function"
        },
        {
            "stateMutability": "payable",
            "type": "receive"
        }
    ],
    "bytecode": "60028054732f7a0ee68709788e1aa8065a300e964993eb7b086001600160a01b0319918216811790925563636ab540600390815563638a59406004556802b5e3af16b1880000600555600780548316909317909255600d8054739691bfe5204102b82b0d21610564145ac36454b690831681179091556014600e55600f805490921617905560e0604052733490e37e4791b95c1af4cda85c1d17f11673ff9a6080908152739565eff8ade3a9aa0a8059ea68d4f32787e1628b60a05273ba286cc49b88e2552cbe07440765ec8120cc71a360c052620000e2916010919062000220565b506040805160608101825260198152600a6020820152602d91810191909152620001119060119060036200028a565b503480156200011f57600080fd5b50600080546001600160a01b03191633908117825581526001602081905260408220805460ff191690911790555b6003811015620001e5576009805460018082019092557f6e1540171b6c0c960b71a7020d9f60077f6af931a8bbf590da0223dacf75c7af60208204018054601f9092166101000a60ff02199091169055600a8054918201815560009081527fc65a7bb8d6351c1cf70c95a316cc6a92839c986682d98bc35f958f4883f9d2a89091015580620001dc8162000335565b9150506200014d565b5060098054620001f891600b91620002cd565b50336000908152600860205260409020600b805462000219929190620002cd565b506200035d565b82805482825590600052602060002090810192821562000278579160200282015b828111156200027857825182546001600160a01b0319166001600160a01b0390911617825560209092019160019091019062000241565b50620002869291506200031e565b5090565b82805482825590600052602060002090810192821562000278579160200282015b8281111562000278578251829060ff16905591602001919060010190620002ab565b82805482825590600052602060002090601f016020900481019282156200027857600052602060002091601f016020900482015b828111156200027857825482559160010191906001019062000301565b5b808211156200028657600081556001016200031f565b6000600182016200035657634e487b7160e01b600052601160045260246000fd5b5060010190565b611a76806200036d6000396000f3fe6080604052600436106101ef5760003560e01c80638da5cb5b1161010c578063cff6f53e1161009a578063eecd9c851161006c578063eecd9c8514610599578063f2fde38b146105ae578063f5a0610d146105ce578063fc0c546a146105ee578063fd14d5981461060e57005b8063cff6f53e14610523578063dea4657214610538578063e9a723151461054e578063ecbac7cf1461058457005b8063b2731f0e116100de578063b2731f0e1461048d578063b4857d45146104ad578063bfb231d2146104c3578063c5ee30ea146104e3578063c79b0ff91461050357005b80638da5cb5b1461042d5780638f9607cb1461044d5780639114bde8146104625780639e66e0f31461047757005b80634b0749cc1161018957806363a846f81161015b57806363a846f81461037d57806369ed1e0a146103ad57806370a0966b146103cd5780637e144a31146103ed5780637fa5a0bf1461040d57005b80634b0749cc1461030a57806350188c081461032a5780635d553a9f1461033d5780635fa345161461035d57005b806321606831116101c2578063216068311461028f578063238393e4146102bf57806335e756c9146102d45780633624850e146102f457005b8062a36947146101f857806313e1b6c014610221578063144fa6d71461025957806316f0115b1461027957005b366101f657005b005b34801561020457600080fd5b5061020e60045481565b6040519081526020015b60405180910390f35b34801561022d57600080fd5b50600d54610241906001600160a01b031681565b6040516001600160a01b039091168152602001610218565b34801561026557600080fd5b50610241610274366004611745565b610623565b34801561028557600080fd5b5061020e600c5481565b34801561029b57600080fd5b506102af6102aa366004611762565b610673565b6040519015158152602001610218565b3480156102cb57600080fd5b5060095461020e565b3480156102e057600080fd5b5061020e6102ef366004611762565b610b5a565b34801561030057600080fd5b5061020e60035481565b34801561031657600080fd5b506102af61032536600461177b565b610bc1565b34801561033657600080fd5b504261020e565b34801561034957600080fd5b5061020e610358366004611762565b610c14565b34801561036957600080fd5b506102af6103783660046117a7565b610d64565b34801561038957600080fd5b506102af610398366004611745565b60016020526000908152604090205460ff1681565b3480156103b957600080fd5b506101f66103c8366004611745565b610d94565b3480156103d957600080fd5b506101f66103e8366004611745565b610e22565b3480156103f957600080fd5b506102af61040836600461177b565b610eaa565b34801561041957600080fd5b506102af6104283660046117a7565b610eed565b34801561043957600080fd5b50600054610241906001600160a01b031681565b34801561045957600080fd5b5061020e610f1d565b34801561046e57600080fd5b5061020e610f83565b34801561048357600080fd5b5061020e60055481565b34801561049957600080fd5b5061020e6104a8366004611762565b611068565b3480156104b957600080fd5b5061020e600e5481565b3480156104cf57600080fd5b506102af6104de366004611762565b611089565b3480156104ef57600080fd5b506101f66104fe36600461177b565b6110bd565b34801561050f57600080fd5b506101f661051e366004611762565b61110d565b34801561052f57600080fd5b506101f661120c565b34801561054457600080fd5b5061020e60065481565b34801561055a57600080fd5b5061020e610569366004611745565b6001600160a01b031660009081526008602052604090205490565b34801561059057600080fd5b5061020e61123c565b3480156105a557600080fd5b506101f661129c565b3480156105ba57600080fd5b506101f66105c9366004611745565b6113c1565b3480156105da57600080fd5b506101f66105e936600461189f565b61144f565b3480156105fa57600080fd5b50600254610241906001600160a01b031681565b34801561061a57600080fd5b5061020e61149b565b600080546001600160a01b0316336001600160a01b03161461064457600080fd5b50600780546001600160a01b0383166001600160a01b0319918216811790925560028054909116909117905590565b600060045442106106b15760405162461bcd60e51b815260206004820152600360248201526211539160ea1b60448201526064015b60405180910390fd5b6003544210156106eb5760405162461bcd60e51b81526020600482015260056024820152641394d5149560da1b60448201526064016106a8565b600b54336000908152600860205260409020541461072357336000908152600860205260409020600b805461072192919061162d565b505b600061072d61123c565b11801561073f575061073d610f83565b155b801561075357506001610751336114fd565b105b15610b295733600090815260086020526040902080548390811061077957610779611961565b60009182526020918290209181049091015460ff601f9092166101000a90041615156001036107de5760405162461bcd60e51b81526020600482015260116024820152706974656d2079612061647175697269646f60781b60448201526064016106a8565b6007546001600160a01b03166323b872dd33306107f961123c565b6040516001600160e01b031960e086901b1681526001600160a01b03938416600482015292909116602483015260448201526064016020604051808303816000875af115801561084d573d6000803e3d6000fd5b505050506040513d601f19601f820116820180604052508101906108719190611977565b6108b55760405162461bcd60e51b81526020600482015260156024820152747472616e73666572656e6369612066616c6c69646160581b60448201526064016106a8565b601054156109d15760005b6010548110156109cf57600754601080546001600160a01b039092169163a9059cbb9190849081106108f4576108f4611961565b9060005260206000200160009054906101000a90046001600160a01b031661094d6103e86109476011878154811061092e5761092e611961565b906000526020600020015461094161123c565b90611598565b906115d4565b6040516001600160e01b031960e085901b1681526001600160a01b03909216600483015260248201526044016020604051808303816000875af1158015610998573d6000803e3d6000fd5b505050506040513d601f19601f820116820180604052508101906109bc9190611977565b50806109c7816119af565b9150506108c0565b505b6109e861051e6103e8610947600e5461094161123c565b600f54600e546001600160a01b039091169063c07f54bc90610a14906103e8906109479061094161123c565b6040518263ffffffff1660e01b8152600401610a3291815260200190565b600060405180830381600087803b158015610a4c57600080fd5b505af1158015610a60573d6000803e3d6000fd5b50505050600a8281548110610a7757610a77611961565b60009182526020822001805491610a8d836119af565b9190505550600160086000610a9f3390565b6001600160a01b03166001600160a01b031681526020019081526020016000208381548110610ad057610ad0611961565b90600052602060002090602091828204019190066101000a81548160ff021916908315150217905550610b0b6064610947605a61094161123c565b600c6000828254610b1c91906119c8565b9091555060019392505050565b60405162461bcd60e51b81526004016106a8906020808252600490820152634e50564d60e01b604082015260600190565b600080546001600160a01b0316336001600160a01b031614610b7b57600080fd5b600160098381548110610b9057610b90611961565b90600052602060002090602091828204019190066101000a81548160ff021916908315150217905550819050919050565b6001600160a01b0382166000908152600860205260408120805483908110610beb57610beb611961565b90600052602060002090602091828204019190069054906101000a900460ff1690505b92915050565b600080546001600160a01b0316336001600160a01b031614610c3557600080fd5b6007546040516370a0823160e01b815230600482015283916001600160a01b0316906370a0823190602401602060405180830381865afa158015610c7d573d6000803e3d6000fd5b505050506040513d601f19601f82011682018060405250810190610ca191906119db565b1015610ce45760405162461bcd60e51b815260206004820152601260248201527173616c646f20696e737566696369656e746560701b60448201526064016106a8565b60075460005460405163a9059cbb60e01b81526001600160a01b0391821660048201526024810185905291169063a9059cbb906044016020604051808303816000875af1158015610d39573d6000803e3d6000fd5b505050506040513d601f19601f82011682018060405250810190610d5d9190611977565b5090919050565b600080546001600160a01b0316336001600160a01b031614610d8557600080fd5b50600391909155600455600190565b6000546001600160a01b0316336001600160a01b031614610db457600080fd5b6001600160a01b038116610dc757600080fd5b6040516001600160a01b038216907f71614071b88dee5e0b2ae578a9dd7b2ebbe9ae832ba419dc0242cd065a290b6c90600090a26001600160a01b03166000908152600160208190526040909120805460ff19169091179055565b6000546001600160a01b0316336001600160a01b031614610e4257600080fd5b6001600160a01b038116610e5557600080fd5b6040516001600160a01b038216907fa3b62bc36326052d97ea62d63c3d60308ed4c3ea8ac079dd8499f1e9c4f80c0f90600090a26001600160a01b03166000908152600160205260409020805460ff19169055565b60086020528160005260406000208181548110610ec657600080fd5b9060005260206000209060209182820401919006915091509054906101000a900460ff1681565b600080546001600160a01b0316336001600160a01b031614610f0e57600080fd5b50600591909155600655600190565b600954600090815b600954811015610f7d5760098181548110610f4257610f42611961565b90600052602060002090602091828204019190069054906101000a900460ff1615610f6b578091505b80610f75816119af565b915050610f25565b50919050565b60008060005b33600090815260086020526040902054811015610f7d5760098181548110610fb357610fb3611961565b90600052602060002090602091828204019190069054906101000a900460ff16801561101c5750336000908152600860205260409020805482908110610ffb57610ffb611961565b90600052602060002090602091828204019190069054906101000a900460ff165b1561105657611053600a828154811061103757611037611961565b9060005260206000200154600c546115d490919063ffffffff16565b91505b80611060816119af565b915050610f89565b600a818154811061107857600080fd5b600091825260209091200154905081565b6009818154811061109957600080fd5b9060005260206000209060209182820401919006915054906101000a900460ff1681565b6000546001600160a01b0316336001600160a01b0316146110dd57600080fd5b600d80546001600160a01b039093166001600160a01b03199384168117909155600f805490931617909155600e55565b600754600d54604051636eb1769f60e11b81523060048201526001600160a01b0391821660248201528392919091169063dd62ed3e90604401602060405180830381865afa158015611163573d6000803e3d6000fd5b505050506040513d601f19601f8201168201806040525081019061118791906119db565b101561120957600754600d5460405163095ea7b360e01b81526001600160a01b039182166004820152600019602482015291169063095ea7b3906044016020604051808303816000875af11580156111e3573d6000803e3d6000fd5b505050506040513d601f19601f820116820180604052508101906112079190611977565b505b50565b6000546001600160a01b0316336001600160a01b03161461122c57600080fd5b600b80546112099160099161162d565b6005546006546000919015611297576003544211156112975761127162015180610947600354426115f690919063ffffffff16565b905061129461128b6006548361159890919063ffffffff16565b60055490611611565b90505b919050565b60006112a6610f83565b116112d85760405162461bcd60e51b81526020600482015260026024820152614e4760f01b60448201526064016106a8565b6007546001600160a01b031663a9059cbb336112f2610f83565b6040516001600160e01b031960e085901b1681526001600160a01b03909216600483015260248201526044016020604051808303816000875af115801561133d573d6000803e3d6000fd5b505050506040513d601f19601f820116820180604052508101906113619190611977565b6113a35760405162461bcd60e51b81526020600482015260136024820152727472616e73616363696f6e2066616c6c69646160681b60448201526064016106a8565b336000908152600860205260409020600b805461120992919061162d565b6000546001600160a01b0316336001600160a01b0316146113e157600080fd5b6001600160a01b0381166113f457600080fd5b600080546040516001600160a01b03808516939216917f8be0079c531659141344cd1fd0a4f28419497f9722a3daafe3b4186f6b6457e091a3600080546001600160a01b0319166001600160a01b0392909216919091179055565b6000546001600160a01b0316336001600160a01b03161461146f57600080fd5b815161148290601090602085019061168b565b5080516114969060119060208401906116e0565b505050565b600080546001600160a01b0316336001600160a01b0316146114bc57600080fd5b600080546040516001600160a01b03909116914780156108fc02929091818181858888f193505050501580156114f6573d6000803e3d6000fd5b5047905090565b600080805b6001600160a01b038416600090815260086020526040902054811015611591576001600160a01b038416600090815260086020526040902080548290811061154c5761154c611961565b90600052602060002090602091828204019190069054906101000a900460ff161561157f578161157b816119af565b9250505b80611589816119af565b915050611502565b5092915050565b6000826000036115aa57506000610c0e565b60006115b683856119f4565b9050826115c38583611a0b565b146115cd57600080fd5b9392505050565b60008082116115e257600080fd5b60006115ee8385611a0b565b949350505050565b60008282111561160557600080fd5b60006115ee8385611a2d565b60008061161e83856119c8565b9050838110156115cd57600080fd5b82805482825590600052602060002090601f0160209004810192821561167b57600052602060002091601f016020900482015b8281111561167b578254825591600101919060010190611660565b5061168792915061171b565b5090565b82805482825590600052602060002090810192821561167b579160200282015b8281111561167b57825182546001600160a01b0319166001600160a01b039091161782556020909201916001909101906116ab565b82805482825590600052602060002090810192821561167b579160200282015b8281111561167b578251825591602001919060010190611700565b5b80821115611687576000815560010161171c565b6001600160a01b038116811461120957600080fd5b60006020828403121561175757600080fd5b81356115cd81611730565b60006020828403121561177457600080fd5b5035919050565b6000806040838503121561178e57600080fd5b823561179981611730565b946020939093013593505050565b600080604083850312156117ba57600080fd5b50508035926020909101359150565b634e487b7160e01b600052604160045260246000fd5b604051601f8201601f1916810167ffffffffffffffff81118282101715611808576118086117c9565b604052919050565b600067ffffffffffffffff82111561182a5761182a6117c9565b5060051b60200190565b600082601f83011261184557600080fd5b8135602061185a61185583611810565b6117df565b82815260059290921b8401810191818101908684111561187957600080fd5b8286015b84811015611894578035835291830191830161187d565b509695505050505050565b600080604083850312156118b257600080fd5b823567ffffffffffffffff808211156118ca57600080fd5b818501915085601f8301126118de57600080fd5b813560206118ee61185583611810565b82815260059290921b8401810191818101908984111561190d57600080fd5b948201945b8386101561193457853561192581611730565b82529482019490820190611912565b9650508601359250508082111561194a57600080fd5b5061195785828601611834565b9150509250929050565b634e487b7160e01b600052603260045260246000fd5b60006020828403121561198957600080fd5b815180151581146115cd57600080fd5b634e487b7160e01b600052601160045260246000fd5b6000600182016119c1576119c1611999565b5060010190565b80820180821115610c0e57610c0e611999565b6000602082840312156119ed57600080fd5b5051919050565b8082028115828204841417610c0e57610c0e611999565b600082611a2857634e487b7160e01b600052601260045260246000fd5b500490565b81810381811115610c0e57610c0e61199956fea2646970667358221220cbb32f060a527cae57393b58e40515e789da1077c7453a55ed52e5b2c43a0b2d64736f6c63430008110033",
    "sourcePath": "c:/Users/STC/Documents/GitHub/goal-crypto/contracts/Votacion-Match/match.sol",
    "compiler": {
        "name": "solc",
        "version": "0.8.17+commit.8df45f5f"
    },
    "functionHashes": {
        "ReIniciar()": "cff6f53e",
        "admin(address)": "63a846f8",
        "aprobarBalnc(uint256)": "c79b0ff9",
        "aumento()": "dea46572",
        "contractStaking()": "13e1b6c0",
        "fans(address,uint256)": "7e144a31",
        "fin()": "00a36947",
        "ganador()": "9114bde8",
        "inicio()": "3624850e",
        "items(uint256)": "bfb231d2",
        "largoFanItems(address)": "e9a72315",
        "largoItems()": "238393e4",
        "makeNewAdmin(address)": "69ed1e0a",
        "makeRemoveAdmin(address)": "70a0966b",
        "owner()": "8da5cb5b",
        "pool()": "16f0115b",
        "porcentStaking()": "b4857d45",
        "precio()": "9e66e0f3",
        "reclamar()": "eecd9c85",
        "redimBNB()": "fd14d598",
        "redimToken(uint256)": "5d553a9f",
        "setGanador(uint256)": "35e756c9",
        "setToken(address)": "144fa6d7",
        "tiempo()": "50188c08",
        "token()": "fc0c546a",
        "transferOwnership(address)": "f2fde38b",
        "updateFases(uint256,uint256)": "5fa34516",
        "updatePrecios(uint256,uint256)": "7fa5a0bf",
        "updateWalletStaking(address,uint256)": "c5ee30ea",
        "updateWalletsFees(address[],uint256[])": "f5a0610d",
        "valor()": "ecbac7cf",
        "verFanItems(address,uint256)": "4b0749cc",
        "verGanador()": "8f9607cb",
        "votar(uint256)": "21606831",
        "votos(uint256)": "b2731f0e"
    },
    "gasEstimates": {
        "creation": {
            "codeDepositCost": "1354800",
            "executionCost": "infinite",
            "totalCost": "infinite"
        },
        "external": {
            "": "208",
            "ReIniciar()": "infinite",
            "admin(address)": "2570",
            "aprobarBalnc(uint256)": "infinite",
            "aumento()": "2351",
            "contractStaking()": "2406",
            "fans(address,uint256)": "6514",
            "fin()": "2331",
            "ganador()": "infinite",
            "inicio()": "2396",
            "items(uint256)": "6325",
            "largoFanItems(address)": "2609",
            "largoItems()": "2349",
            "makeNewAdmin(address)": "28043",
            "makeRemoveAdmin(address)": "28047",
            "owner()": "2383",
            "pool()": "2397",
            "porcentStaking()": "2351",
            "precio()": "2396",
            "reclamar()": "infinite",
            "redimBNB()": "infinite",
            "redimToken(uint256)": "infinite",
            "setGanador(uint256)": "30609",
            "setToken(address)": "51124",
            "tiempo()": "248",
            "token()": "2447",
            "transferOwnership(address)": "30478",
            "updateFases(uint256,uint256)": "46803",
            "updatePrecios(uint256,uint256)": "46824",
            "updateWalletStaking(address,uint256)": "73182",
            "updateWalletsFees(address[],uint256[])": "infinite",
            "valor()": "infinite",
            "verFanItems(address,uint256)": "6479",
            "verGanador()": "infinite",
            "votar(uint256)": "infinite",
            "votos(uint256)": "4609"
        },
        "internal": {
            "limit(address)": "infinite"
        }
    }
}