{
    "contractName": "Preventa",
    "abi": [
        {
            "inputs": [],
            "stateMutability": "nonpayable",
            "type": "constructor"
        },
        {
            "stateMutability": "payable",
            "type": "fallback"
        },
        {
            "inputs": [],
            "name": "MINIMO",
            "outputs": [
                {
                    "internalType": "uint256",
                    "name": "",
                    "type": "uint256"
                }
            ],
            "stateMutability": "view",
            "type": "function"
        },
        {
            "inputs": [],
            "name": "PRECIO_COMPRA",
            "outputs": [
                {
                    "internalType": "uint256",
                    "name": "",
                    "type": "uint256"
                }
            ],
            "stateMutability": "view",
            "type": "function"
        },
        {
            "inputs": [],
            "name": "PRECIO_VENTA",
            "outputs": [
                {
                    "internalType": "uint256",
                    "name": "",
                    "type": "uint256"
                }
            ],
            "stateMutability": "view",
            "type": "function"
        },
        {
            "inputs": [],
            "name": "TOTAL_PREVENTA",
            "outputs": [
                {
                    "internalType": "uint256",
                    "name": "",
                    "type": "uint256"
                }
            ],
            "stateMutability": "view",
            "type": "function"
        },
        {
            "inputs": [],
            "name": "TOTAL_REFERIDOS",
            "outputs": [
                {
                    "internalType": "uint256",
                    "name": "",
                    "type": "uint256"
                }
            ],
            "stateMutability": "view",
            "type": "function"
        },
        {
            "inputs": [
                {
                    "internalType": "uint256",
                    "name": "",
                    "type": "uint256"
                }
            ],
            "name": "admins",
            "outputs": [
                {
                    "internalType": "address",
                    "name": "",
                    "type": "address"
                }
            ],
            "stateMutability": "view",
            "type": "function"
        },
        {
            "inputs": [
                {
                    "internalType": "uint256",
                    "name": "_value",
                    "type": "uint256"
                },
                {
                    "internalType": "address",
                    "name": "_padre",
                    "type": "address"
                }
            ],
            "name": "comprar",
            "outputs": [
                {
                    "internalType": "bool",
                    "name": "",
                    "type": "bool"
                }
            ],
            "stateMutability": "nonpayable",
            "type": "function"
        },
        {
            "inputs": [
                {
                    "internalType": "uint256",
                    "name": "",
                    "type": "uint256"
                }
            ],
            "name": "niveles",
            "outputs": [
                {
                    "internalType": "uint256",
                    "name": "",
                    "type": "uint256"
                }
            ],
            "stateMutability": "view",
            "type": "function"
        },
        {
            "inputs": [
                {
                    "internalType": "uint256",
                    "name": "",
                    "type": "uint256"
                }
            ],
            "name": "porcentajes",
            "outputs": [
                {
                    "internalType": "uint256",
                    "name": "",
                    "type": "uint256"
                }
            ],
            "stateMutability": "view",
            "type": "function"
        },
        {
            "inputs": [
                {
                    "internalType": "uint256",
                    "name": "_value",
                    "type": "uint256"
                }
            ],
            "name": "vender",
            "outputs": [
                {
                    "internalType": "bool",
                    "name": "",
                    "type": "bool"
                }
            ],
            "stateMutability": "nonpayable",
            "type": "function"
        },
        {
            "stateMutability": "payable",
            "type": "receive"
        }
    ],
    "bytecode": "600080546001600160a01b031990811673d5881b890b443be0c609bdfade3d8ce886cf9bac1790915560018054909116734ebdec0eeee228fbfc120e31612ac5fdac51220b179055670de0b6b3a76400006002556969e10de76676d08000006003908155694a1d89bb94865ec000006004556b02091fb06eec50ca3600000060059081556a1773589459fe83fac0000060065560e0604052601e6080908152600a60a05260c0919091526100b6916007919061016c565b5060408051608081018252730c4c6519e8b6e4d9c99b09a3cda475638c930b008152734707afaecda26baf223954035d0a80faeafdd4456020820181905273bb44d026e3f8e862356fba72c6828eb54d4f30f69282019290925260608101919091526101269060089060046101bc565b5060408051608081018252602180825260208201819052918101919091526064606082015261015990600990600461016c565b5034801561016657600080fd5b50610226565b8280548282559060005260206000209081019282156101ac579160200282015b828111156101ac578251829060ff1690559160200191906001019061018c565b506101b8929150610211565b5090565b8280548282559060005260206000209081019282156101ac579160200282015b828111156101ac57825182546001600160a01b0319166001600160a01b039091161782556020909201916001909101906101dc565b5b808211156101b85760008155600101610212565b6109d9806102356000396000f3fe60806040526004361061008f5760003560e01c80633e1e5f3e116100565780633e1e5f3e1461015f57806345b2139714610175578063983358941461018b578063b0e87e27146101ab578063db3358ab146101c157005b806309baa07d1461009857806314bfd6d0146100cd5780632f32d2c0146101055780633276feed14610133578063380dbd241461014957005b3661009657005b005b3480156100a457600080fd5b506100b86100b3366004610864565b6101e1565b60405190151581526020015b60405180910390f35b3480156100d957600080fd5b506100ed6100e8366004610864565b61032e565b6040516001600160a01b0390911681526020016100c4565b34801561011157600080fd5b50610125610120366004610864565b610358565b6040519081526020016100c4565b34801561013f57600080fd5b5061012560025481565b34801561015557600080fd5b5061012560045481565b34801561016b57600080fd5b5061012560065481565b34801561018157600080fd5b5061012560055481565b34801561019757600080fd5b506101256101a6366004610864565b610379565b3480156101b757600080fd5b5061012560035481565b3480156101cd57600080fd5b506100b86101dc36600461087d565b610389565b60006002548210156101f257600080fd5b6004546000906102149061020e85670de0b6b3a76400006107cf565b9061080b565b6001546040516323b872dd60e01b81529192506001600160a01b0316906323b872dd90610249903390309086906004016108b9565b6020604051808303816000875af1158015610268573d6000803e3d6000fd5b505050506040513d601f19601f8201168201806040525081019061028c91906108dd565b61029557600080fd5b6000546040516323b872dd60e01b81526001600160a01b03909116906323b872dd906102c9903090339088906004016108b9565b6020604051808303816000875af11580156102e8573d6000803e3d6000fd5b505050506040513d601f19601f8201168201806040525081019061030c91906108dd565b61031557600080fd5b600554610322908261082d565b60055550600192915050565b6008818154811061033e57600080fd5b6000918252602090912001546001600160a01b0316905081565b6009818154811061036857600080fd5b600091825260209091200154905081565b6007818154811061036857600080fd5b600060025483101561039a57600080fd5b6003546000906103b69061020e86670de0b6b3a76400006107cf565b6000546040516323b872dd60e01b81529192506001600160a01b0316906323b872dd906103eb903390309089906004016108b9565b6020604051808303816000875af115801561040a573d6000803e3d6000fd5b505050506040513d601f19601f8201168201806040525081019061042e91906108dd565b61043757600080fd5b6001546040516323b872dd60e01b81526001600160a01b03909116906323b872dd9061046b903090339086906004016108b9565b6020604051808303816000875af115801561048a573d6000803e3d6000fd5b505050506040513d601f19601f820116820180604052508101906104ae91906108dd565b6104b757600080fd5b336000908152600a60205260409020546001600160a01b03161580156104e557506001600160a01b03831615155b1561051357336000908152600a6020526040902080546001600160a01b0319166001600160a01b0385161790555b336000908152600a60205260409020546001600160a01b031615801590610571575061056c6103e861020e6007600081548110610552576105526108ff565b9060005260206000200154846107cf90919063ffffffff16565b600654115b156106b25760005b6007548110156106b0576006546105bc6103e861020e600785815481106105a2576105a26108ff565b9060005260206000200154866107cf90919063ffffffff16565b1161069e57600160009054906101000a90046001600160a01b03166001600160a01b03166323b872dd308661061d6103e861020e60078881548110610603576106036108ff565b9060005260206000200154896107cf90919063ffffffff16565b6040518463ffffffff1660e01b815260040161063b939291906108b9565b6020604051808303816000875af115801561065a573d6000803e3d6000fd5b505050506040513d601f19601f8201168201806040525081019061067e91906108dd565b506001600160a01b039384166000908152600a6020526040902054909316925b806106a88161092b565b915050610579565b505b6005546106bf9082610849565b60055560005b6008548110156107c257600054600880546001600160a01b03909216916323b872dd913091859081106106fa576106fa6108ff565b9060005260206000200160009054906101000a90046001600160a01b031661074e6103e861020e60098881548110610734576107346108ff565b90600052602060002001548c6107cf90919063ffffffff16565b6040518463ffffffff1660e01b815260040161076c939291906108b9565b6020604051808303816000875af115801561078b573d6000803e3d6000fd5b505050506040513d601f19601f820116820180604052508101906107af91906108dd565b50806107ba8161092b565b9150506106c5565b5060019150505b92915050565b6000826000036107e1575060006107c9565b60006107ed8385610944565b9050826107fa858361095b565b1461080457600080fd5b9392505050565b600080821161081957600080fd5b6000610825838561095b565b949350505050565b60008061083a838561097d565b90508381101561080457600080fd5b60008282111561085857600080fd5b60006108258385610990565b60006020828403121561087657600080fd5b5035919050565b6000806040838503121561089057600080fd5b8235915060208301356001600160a01b03811681146108ae57600080fd5b809150509250929050565b6001600160a01b039384168152919092166020820152604081019190915260600190565b6000602082840312156108ef57600080fd5b8151801515811461080457600080fd5b634e487b7160e01b600052603260045260246000fd5b634e487b7160e01b600052601160045260246000fd5b60006001820161093d5761093d610915565b5060010190565b80820281158282048414176107c9576107c9610915565b60008261097857634e487b7160e01b600052601260045260246000fd5b500490565b808201808211156107c9576107c9610915565b818103818111156107c9576107c961091556fea264697066735822122028316e5b7a0c51334bbf10f98ad047d0796e9319fc6b2aa024940c4fc07bba0364736f6c63430008110033",
    "sourcePath": "c:/Users/STC/Documents/GitHub/biggoal/contracts/Preventa/preventa.sol",
    "compiler": {
        "name": "solc",
        "version": "0.8.17+commit.8df45f5f"
    },
    "functionHashes": {
        "MINIMO()": "3276feed",
        "PRECIO_COMPRA()": "b0e87e27",
        "PRECIO_VENTA()": "380dbd24",
        "TOTAL_PREVENTA()": "45b21397",
        "TOTAL_REFERIDOS()": "3e1e5f3e",
        "admins(uint256)": "14bfd6d0",
        "comprar(uint256,address)": "db3358ab",
        "niveles(uint256)": "98335894",
        "porcentajes(uint256)": "2f32d2c0",
        "vender(uint256)": "09baa07d"
    },
    "gasEstimates": {
        "creation": {
            "codeDepositCost": "504200",
            "executionCost": "infinite",
            "totalCost": "infinite"
        },
        "external": {
            "": "184",
            "MINIMO()": "2362",
            "PRECIO_COMPRA()": "2361",
            "PRECIO_VENTA()": "2384",
            "TOTAL_PREVENTA()": "2317",
            "TOTAL_REFERIDOS()": "2295",
            "admins(uint256)": "4637",
            "comprar(uint256,address)": "infinite",
            "niveles(uint256)": "4619",
            "porcentajes(uint256)": "4620",
            "vender(uint256)": "infinite"
        }
    }
}