{
    "contractName": "StakingPool",
    "abi": [
        {
            "inputs": [],
            "stateMutability": "nonpayable",
            "type": "constructor"
        },
        {
            "stateMutability": "payable",
            "type": "fallback"
        },
        {
            "inputs": [],
            "name": "DISTRIBUTION_POOL",
            "outputs": [
                {
                    "internalType": "uint256",
                    "name": "",
                    "type": "uint256"
                }
            ],
            "stateMutability": "view",
            "type": "function"
        },
        {
            "inputs": [],
            "name": "MAX_DEPOSIT",
            "outputs": [
                {
                    "internalType": "uint256",
                    "name": "",
                    "type": "uint256"
                }
            ],
            "stateMutability": "view",
            "type": "function"
        },
        {
            "inputs": [],
            "name": "MIN_DEPOSIT",
            "outputs": [
                {
                    "internalType": "uint256",
                    "name": "",
                    "type": "uint256"
                }
            ],
            "stateMutability": "view",
            "type": "function"
        },
        {
            "inputs": [],
            "name": "PAYER_POOL_BALANCE",
            "outputs": [
                {
                    "internalType": "uint256",
                    "name": "",
                    "type": "uint256"
                }
            ],
            "stateMutability": "view",
            "type": "function"
        },
        {
            "inputs": [],
            "name": "RATE",
            "outputs": [
                {
                    "internalType": "uint256",
                    "name": "",
                    "type": "uint256"
                }
            ],
            "stateMutability": "view",
            "type": "function"
        },
        {
            "inputs": [],
            "name": "TIME_DISTRIBUTION",
            "outputs": [
                {
                    "internalType": "uint256",
                    "name": "",
                    "type": "uint256"
                }
            ],
            "stateMutability": "view",
            "type": "function"
        },
        {
            "inputs": [],
            "name": "TOTAL_PARTICIPACIONES",
            "outputs": [
                {
                    "internalType": "uint256",
                    "name": "",
                    "type": "uint256"
                }
            ],
            "stateMutability": "view",
            "type": "function"
        },
        {
            "inputs": [],
            "name": "TOTAL_STAKING",
            "outputs": [
                {
                    "internalType": "uint256",
                    "name": "",
                    "type": "uint256"
                }
            ],
            "stateMutability": "view",
            "type": "function"
        },
        {
            "inputs": [
                {
                    "internalType": "uint256",
                    "name": "_value",
                    "type": "uint256"
                }
            ],
            "name": "compra",
            "outputs": [
                {
                    "internalType": "uint256",
                    "name": "",
                    "type": "uint256"
                }
            ],
            "stateMutability": "view",
            "type": "function"
        },
        {
            "inputs": [
                {
                    "internalType": "address",
                    "name": "",
                    "type": "address"
                },
                {
                    "internalType": "uint256",
                    "name": "",
                    "type": "uint256"
                }
            ],
            "name": "deposito",
            "outputs": [
                {
                    "internalType": "uint256",
                    "name": "",
                    "type": "uint256"
                }
            ],
            "stateMutability": "view",
            "type": "function"
        },
        {
            "inputs": [
                {
                    "internalType": "address",
                    "name": "_user",
                    "type": "address"
                }
            ],
            "name": "depositoTotal",
            "outputs": [
                {
                    "internalType": "uint256[]",
                    "name": "",
                    "type": "uint256[]"
                }
            ],
            "stateMutability": "view",
            "type": "function"
        },
        {
            "inputs": [
                {
                    "internalType": "address",
                    "name": "_user",
                    "type": "address"
                }
            ],
            "name": "depositoTotalToken",
            "outputs": [
                {
                    "internalType": "uint256",
                    "name": "",
                    "type": "uint256"
                }
            ],
            "stateMutability": "view",
            "type": "function"
        },
        {
            "inputs": [
                {
                    "internalType": "address",
                    "name": "_user",
                    "type": "address"
                }
            ],
            "name": "dividendos",
            "outputs": [
                {
                    "internalType": "uint256[]",
                    "name": "",
                    "type": "uint256[]"
                }
            ],
            "stateMutability": "view",
            "type": "function"
        },
        {
            "inputs": [],
            "name": "duracion",
            "outputs": [
                {
                    "internalType": "uint256",
                    "name": "",
                    "type": "uint256"
                }
            ],
            "stateMutability": "view",
            "type": "function"
        },
        {
            "inputs": [
                {
                    "internalType": "address",
                    "name": "",
                    "type": "address"
                },
                {
                    "internalType": "uint256",
                    "name": "",
                    "type": "uint256"
                }
            ],
            "name": "fecha",
            "outputs": [
                {
                    "internalType": "uint256",
                    "name": "",
                    "type": "uint256"
                }
            ],
            "stateMutability": "view",
            "type": "function"
        },
        {
            "inputs": [],
            "name": "inicio",
            "outputs": [
                {
                    "internalType": "uint256",
                    "name": "",
                    "type": "uint256"
                }
            ],
            "stateMutability": "view",
            "type": "function"
        },
        {
            "inputs": [],
            "name": "lastPay",
            "outputs": [
                {
                    "internalType": "uint256",
                    "name": "",
                    "type": "uint256"
                }
            ],
            "stateMutability": "view",
            "type": "function"
        },
        {
            "inputs": [],
            "name": "pagarDividendos",
            "outputs": [],
            "stateMutability": "nonpayable",
            "type": "function"
        },
        {
            "inputs": [
                {
                    "internalType": "uint256",
                    "name": "_value",
                    "type": "uint256"
                }
            ],
            "name": "pago",
            "outputs": [
                {
                    "internalType": "uint256",
                    "name": "",
                    "type": "uint256"
                }
            ],
            "stateMutability": "view",
            "type": "function"
        },
        {
            "inputs": [],
            "name": "precision",
            "outputs": [
                {
                    "internalType": "uint256",
                    "name": "",
                    "type": "uint256"
                }
            ],
            "stateMutability": "view",
            "type": "function"
        },
        {
            "inputs": [
                {
                    "internalType": "uint256",
                    "name": "_token",
                    "type": "uint256"
                }
            ],
            "name": "recargarPool",
            "outputs": [],
            "stateMutability": "nonpayable",
            "type": "function"
        },
        {
            "inputs": [
                {
                    "internalType": "uint256",
                    "name": "_deposito",
                    "type": "uint256"
                }
            ],
            "name": "retiro",
            "outputs": [],
            "stateMutability": "nonpayable",
            "type": "function"
        },
        {
            "inputs": [
                {
                    "internalType": "address",
                    "name": "_user",
                    "type": "address"
                }
            ],
            "name": "retiroDividendos",
            "outputs": [],
            "stateMutability": "nonpayable",
            "type": "function"
        },
        {
            "inputs": [
                {
                    "internalType": "uint256",
                    "name": "_token",
                    "type": "uint256"
                }
            ],
            "name": "staking",
            "outputs": [],
            "stateMutability": "nonpayable",
            "type": "function"
        },
        {
            "inputs": [
                {
                    "internalType": "address",
                    "name": "",
                    "type": "address"
                },
                {
                    "internalType": "uint256",
                    "name": "",
                    "type": "uint256"
                }
            ],
            "name": "tokenInterno",
            "outputs": [
                {
                    "internalType": "uint256",
                    "name": "",
                    "type": "uint256"
                }
            ],
            "stateMutability": "view",
            "type": "function"
        },
        {
            "inputs": [
                {
                    "internalType": "address",
                    "name": "_user",
                    "type": "address"
                }
            ],
            "name": "totalDividendos",
            "outputs": [
                {
                    "internalType": "uint256",
                    "name": "",
                    "type": "uint256"
                }
            ],
            "stateMutability": "view",
            "type": "function"
        },
        {
            "stateMutability": "payable",
            "type": "receive"
        }
    ],
    "bytecode": "6080604052600080546001600160a01b03191673b775aa16c216e34392e91e85676e58c3ad72ee7717905568048dbbf2f2ecd000006004556911c9a62d04ed0c8000006005556201518060075563636963c0600b819055600c55624f1a00600d556012600e5534801561007157600080fd5b506112be806100816000396000f3fe6080604052600436106101735760003560e01c806395f4f283116100c8578063c4f5895411610084578063d8765a9c11610061578063d8765a9c14610400578063dd5967c314610416578063df62f4101461042c578063e1e158a51461044257005b8063c4f58954146103aa578063d3b5dc3b146103ca578063d86bae63146103e057005b806395f4f283146102f2578063a898a17414610308578063b4c48dc814610328578063b5e860a114610355578063bc896d531461036a578063c07f54bc1461038a57005b806334e7c21a1161012f57806372a501ae1161010c57806372a501ae146102865780637936f819146102a65780637cb02950146102bc57806389ed32b2146102dc57005b806334e7c21a1461023b5780633624850e1461025b578063664e97041461027157005b8063170d3eb61461017c5780631c2f6357146101af5780631dbb2a22146101cf5780632fdb8322146101ef578063315a25a11461020557806333916e771461021b57005b3661017a57005b005b34801561018857600080fd5b5061019c610197366004611004565b610458565b6040519081526020015b60405180910390f35b3480156101bb57600080fd5b5061019c6101ca366004611004565b610489565b3480156101db57600080fd5b5061017a6101ea36600461102e565b6104a5565b3480156101fb57600080fd5b5061019c60085481565b34801561021157600080fd5b5061019c60095481565b34801561022757600080fd5b5061019c61023636600461102e565b610638565b34801561024757600080fd5b5061019c610256366004611047565b61066a565b34801561026757600080fd5b5061019c600b5481565b34801561027d57600080fd5b5061019c6106eb565b34801561029257600080fd5b5061019c6102a1366004611004565b61072b565b3480156102b257600080fd5b5061019c600d5481565b3480156102c857600080fd5b5061019c6102d736600461102e565b610747565b3480156102e857600080fd5b5061019c60065481565b3480156102fe57600080fd5b5061019c60075481565b34801561031457600080fd5b5061017a610323366004611047565b610766565b34801561033457600080fd5b50610348610343366004611047565b6108d6565b6040516101a69190611062565b34801561036157600080fd5b5061017a610942565b34801561037657600080fd5b5061017a61038536600461102e565b6109c2565b34801561039657600080fd5b5061017a6103a536600461102e565b610d2a565b3480156103b657600080fd5b5061019c6103c5366004611047565b610dc0565b3480156103d657600080fd5b5061019c600e5481565b3480156103ec57600080fd5b506103486103fb366004611047565b610e1c565b34801561040c57600080fd5b5061019c600a5481565b34801561042257600080fd5b5061019c60055481565b34801561043857600080fd5b5061019c600c5481565b34801561044e57600080fd5b5061019c60045481565b6001602052816000526040600020818154811061047457600080fd5b90600052602060002001600091509150505481565b6002602052816000526040600020818154811061047457600080fd5b600b544210156104b457600080fd5b6004548110156104c357600080fd5b600554816104d03361066a565b6104da91906110bc565b11156104e557600080fd5b6000546040516323b872dd60e01b8152336004820152306024820152604481018390526001600160a01b03909116906323b872dd906064016020604051808303816000875af115801561053c573d6000803e3d6000fd5b505050506040513d601f19601f8201168201806040525081019061056091906110cf565b61056957600080fd5b33600090815260026020526040902061058182610747565b815460018101835560009283526020909220909101556105a081610747565b600960008282546105b191906110bc565b9250508190555080600a60008282546105ca91906110bc565b9091555050336000908152600360205260409020600d546105eb90426110bc565b815460018181018455600093845260208085209092019290925533835281815260408320805492830181558352822001829055600880548392906106309084906110bc565b909155505050565b6000610664600e54600a61064c91906111d5565b61065e6106576106eb565b8590610f6f565b90610fab565b92915050565b60008060005b6001600160a01b0384166000908152600160205260409020548110156106e4576001600160a01b03841660009081526001602052604090208054829081106106ba576106ba6111e1565b9060005260206000200154826106d091906110bc565b9150806106dc816111f7565b915050610670565b5092915050565b600060095460000361070a57600e5461070590600a6111d5565b905090565b61070560095461065e600e54600a61072291906111d5565b600a5490610f6f565b6003602052816000526040600020818154811061047457600080fd5b60006106646107546106eb565b61065e600e54600a61065791906111d5565b600061077182610dc0565b9050600061078161023684610dc0565b60005460405163a9059cbb60e01b81526001600160a01b0386811660048301526024820184905292935091169063a9059cbb906044016020604051808303816000875af11580156107d6573d6000803e3d6000fd5b505050506040513d601f19601f820116820180604052508101906107fa91906110cf565b61080357600080fd5b60005b61080f84610e1c565b518110156108a05761082084610e1c565b8181518110610831576108316111e1565b602002602001015160026000866001600160a01b03166001600160a01b03168152602001908152602001600020828154811061086f5761086f6111e1565b9060005260206000200160008282546108889190611210565b90915550819050610898816111f7565b915050610806565b5081600960008282546108b39190611210565b9250508190555080600a60008282546108cc9190611210565b9091555050505050565b6001600160a01b03811660009081526001602090815260409182902080548351818402810184019094528084526060939283018282801561093657602002820191906000526020600020905b815481526020019060010190808311610922575b50505050509050919050565b600754600c5461095291906110bc565b42106109bd576000610975606461065e6002600654610f6f90919063ffffffff16565b905080600660008282546109899190611210565b9250508190555080600a60008282546109a291906110bc565b9091555050600754600c546109b791906110bc565b600c5550565b600080fd5b3360009081526003602052604090208054429190839081106109e6576109e66111e1565b906000526020600020015411156109fc57600080fd5b3360009081526002602052604081208054610a32919084908110610a2257610a226111e1565b9060005260206000200154610638565b60005460405163a9059cbb60e01b8152336004820152602481018390529192506001600160a01b03169063a9059cbb906044016020604051808303816000875af1158015610a84573d6000803e3d6000fd5b505050506040513d601f19601f82011682018060405250810190610aa891906110cf565b610ab157600080fd5b336000908152600260205260409020805483908110610ad257610ad26111e1565b906000526020600020015460096000828254610aee9190611210565b9250508190555080600a6000828254610b079190611210565b9091555050336000908152600160205260409020805483908110610b2d57610b2d6111e1565b906000526020600020015460086000828254610b499190611210565b90915550503360009081526002602052604090208054610b6b90600190611210565b81548110610b7b57610b7b6111e1565b600091825260208083209091015433835260029091526040909120805484908110610ba857610ba86111e1565b6000918252602080832090910192909255338152600290915260409020805480610bd457610bd4611223565b600082815260208082208301600019908101839055909201909255338252600190819052604090912080549091610c0a91611210565b81548110610c1a57610c1a6111e1565b600091825260208083209091015433835260019091526040909120805484908110610c4757610c476111e1565b6000918252602080832090910192909255338152600190915260409020805480610c7357610c73611223565b60008281526020808220830160001990810183905590920190925533825260039052604090208054610ca790600190611210565b81548110610cb757610cb76111e1565b600091825260208083209091015433835260039091526040909120805484908110610ce457610ce46111e1565b6000918252602080832090910192909255338152600390915260409020805480610d1057610d10611223565b600190038181906000526020600020016000905590555050565b6000546040516323b872dd60e01b8152336004820152306024820152604481018390526001600160a01b03909116906323b872dd906064016020604051808303816000875af1158015610d81573d6000803e3d6000fd5b505050506040513d601f19601f82011682018060405250810190610da591906110cf565b610dae57600080fd5b806006600082825461063091906110bc565b600080610dcc83610e1c565b90506000805b8251811015610e1457828181518110610ded57610ded6111e1565b602002602001015182610e0091906110bc565b915080610e0c816111f7565b915050610dd2565b509392505050565b6001600160a01b0381166000908152600260209081526040808320805482518185028101850190935280835260609493830182828015610e7b57602002820191906000526020600020905b815481526020019060010190808311610e67575b505050505090506000815167ffffffffffffffff811115610e9e57610e9e611239565b604051908082528060200260200182016040528015610ec7578160200160208202803683370190505b50905060005b8251811015610e14576001600160a01b03851660009081526001602052604090208054610f4091610f189184908110610f0857610f086111e1565b9060005260206000200154610747565b848381518110610f2a57610f2a6111e1565b6020026020010151610fcd90919063ffffffff16565b828281518110610f5257610f526111e1565b602090810291909101015280610f67816111f7565b915050610ecd565b600082600003610f8157506000610664565b6000610f8d838561124f565b905082610f9a8583611266565b14610fa457600080fd5b9392505050565b6000808211610fb957600080fd5b6000610fc58385611266565b949350505050565b600082821115610fdc57600080fd5b6000610fc58385611210565b80356001600160a01b0381168114610fff57600080fd5b919050565b6000806040838503121561101757600080fd5b61102083610fe8565b946020939093013593505050565b60006020828403121561104057600080fd5b5035919050565b60006020828403121561105957600080fd5b610fa482610fe8565b6020808252825182820181905260009190848201906040850190845b8181101561109a5783518352928401929184019160010161107e565b50909695505050505050565b634e487b7160e01b600052601160045260246000fd5b80820180821115610664576106646110a6565b6000602082840312156110e157600080fd5b81518015158114610fa457600080fd5b600181815b8085111561112c578160001904821115611112576111126110a6565b8085161561111f57918102915b93841c93908002906110f6565b509250929050565b60008261114357506001610664565b8161115057506000610664565b816001811461116657600281146111705761118c565b6001915050610664565b60ff841115611181576111816110a6565b50506001821b610664565b5060208310610133831016604e8410600b84101617156111af575081810a610664565b6111b983836110f1565b80600019048211156111cd576111cd6110a6565b029392505050565b6000610fa48383611134565b634e487b7160e01b600052603260045260246000fd5b600060018201611209576112096110a6565b5060010190565b81810381811115610664576106646110a6565b634e487b7160e01b600052603160045260246000fd5b634e487b7160e01b600052604160045260246000fd5b8082028115828204841417610664576106646110a6565b60008261128357634e487b7160e01b600052601260045260246000fd5b50049056fea26469706673582212202f2183bb2c3620369499f387f0e74128cda5daa0b527db0290bd44019e55bfb964736f6c63430008110033",
    "sourcePath": "c:/Users/STC/Documents/GitHub/goal-crypto/contracts/Staking/staking-deposito.sol",
    "compiler": {
        "name": "solc",
        "version": "0.8.17+commit.8df45f5f"
    },
    "functionHashes": {
        "DISTRIBUTION_POOL()": "89ed32b2",
        "MAX_DEPOSIT()": "dd5967c3",
        "MIN_DEPOSIT()": "e1e158a5",
        "PAYER_POOL_BALANCE()": "d8765a9c",
        "RATE()": "664e9704",
        "TIME_DISTRIBUTION()": "95f4f283",
        "TOTAL_PARTICIPACIONES()": "315a25a1",
        "TOTAL_STAKING()": "2fdb8322",
        "compra(uint256)": "7cb02950",
        "deposito(address,uint256)": "170d3eb6",
        "depositoTotal(address)": "b4c48dc8",
        "depositoTotalToken(address)": "34e7c21a",
        "dividendos(address)": "d86bae63",
        "duracion()": "7936f819",
        "fecha(address,uint256)": "72a501ae",
        "inicio()": "3624850e",
        "lastPay()": "df62f410",
        "pagarDividendos()": "b5e860a1",
        "pago(uint256)": "33916e77",
        "precision()": "d3b5dc3b",
        "recargarPool(uint256)": "c07f54bc",
        "retiro(uint256)": "bc896d53",
        "retiroDividendos(address)": "a898a174",
        "staking(uint256)": "1dbb2a22",
        "tokenInterno(address,uint256)": "1c2f6357",
        "totalDividendos(address)": "c4f58954"
    },
    "gasEstimates": {
        "creation": {
            "codeDepositCost": "959600",
            "executionCost": "179975",
            "totalCost": "1139575"
        },
        "external": {
            "": "229",
            "DISTRIBUTION_POOL()": "2395",
            "MAX_DEPOSIT()": "2350",
            "MIN_DEPOSIT()": "2394",
            "PAYER_POOL_BALANCE()": "2328",
            "RATE()": "infinite",
            "TIME_DISTRIBUTION()": "2307",
            "TOTAL_PARTICIPACIONES()": "2396",
            "TOTAL_STAKING()": "2374",
            "compra(uint256)": "infinite",
            "deposito(address,uint256)": "4757",
            "depositoTotal(address)": "infinite",
            "depositoTotalToken(address)": "infinite",
            "dividendos(address)": "infinite",
            "duracion()": "2351",
            "fecha(address,uint256)": "4778",
            "inicio()": "2352",
            "lastPay()": "2372",
            "pagarDividendos()": "infinite",
            "pago(uint256)": "infinite",
            "precision()": "2351",
            "recargarPool(uint256)": "infinite",
            "retiro(uint256)": "infinite",
            "retiroDividendos(address)": "infinite",
            "staking(uint256)": "infinite",
            "tokenInterno(address,uint256)": "4779",
            "totalDividendos(address)": "infinite"
        }
    }
}